{
	"contracts/230503_2.sol": {
		"BYTES": {
			"abi": [
				{
					"inputs": [
						{
							"internalType": "uint256",
							"name": "_a",
							"type": "uint256"
						}
					],
					"name": "add",
					"outputs": [
						{
							"internalType": "uint256",
							"name": "",
							"type": "uint256"
						}
					],
					"stateMutability": "pure",
					"type": "function"
				},
				{
					"inputs": [],
					"name": "getA",
					"outputs": [
						{
							"internalType": "bytes",
							"name": "",
							"type": "bytes"
						}
					],
					"stateMutability": "view",
					"type": "function"
				},
				{
					"inputs": [
						{
							"internalType": "bytes",
							"name": "_a",
							"type": "bytes"
						}
					],
					"name": "setA",
					"outputs": [],
					"stateMutability": "nonpayable",
					"type": "function"
				},
				{
					"inputs": [],
					"name": "setA2",
					"outputs": [],
					"stateMutability": "nonpayable",
					"type": "function"
				},
				{
					"inputs": [
						{
							"internalType": "string",
							"name": "_a",
							"type": "string"
						}
					],
					"name": "setA3",
					"outputs": [],
					"stateMutability": "nonpayable",
					"type": "function"
				}
			],
			"devdoc": {
				"kind": "dev",
				"methods": {},
				"version": 1
			},
			"evm": {
				"assembly": "    /* \"contracts/230503_2.sol\":278:696  contract BYTES {... */\n  mstore(0x40, 0x80)\n  callvalue\n  dup1\n  iszero\n  tag_1\n  jumpi\n  0x00\n  dup1\n  revert\ntag_1:\n  pop\n  dataSize(sub_0)\n  dup1\n  dataOffset(sub_0)\n  0x00\n  codecopy\n  0x00\n  return\nstop\n\nsub_0: assembly {\n        /* \"contracts/230503_2.sol\":278:696  contract BYTES {... */\n      mstore(0x40, 0x80)\n      callvalue\n      dup1\n      iszero\n      tag_1\n      jumpi\n      0x00\n      dup1\n      revert\n    tag_1:\n      pop\n      jumpi(tag_2, lt(calldatasize, 0x04))\n      shr(0xe0, calldataload(0x00))\n      dup1\n      0x1003e2d2\n      eq\n      tag_3\n      jumpi\n      dup1\n      0x498e6857\n      eq\n      tag_4\n      jumpi\n      dup1\n      0xcea72ca5\n      eq\n      tag_5\n      jumpi\n      dup1\n      0xd46300fd\n      eq\n      tag_6\n      jumpi\n      dup1\n      0xe1421c92\n      eq\n      tag_7\n      jumpi\n    tag_2:\n      0x00\n      dup1\n      revert\n        /* \"contracts/230503_2.sol\":611:691  function add(uint _a) public pure returns(uint){... */\n    tag_3:\n      tag_8\n      0x04\n      dup1\n      calldatasize\n      sub\n      dup2\n      add\n      swap1\n      tag_9\n      swap2\n      swap1\n      tag_10\n      jump\t// in\n    tag_9:\n      tag_11\n      jump\t// in\n    tag_8:\n      mload(0x40)\n      tag_12\n      swap2\n      swap1\n      tag_13\n      jump\t// in\n    tag_12:\n      mload(0x40)\n      dup1\n      swap2\n      sub\n      swap1\n      return\n        /* \"contracts/230503_2.sol\":386:437  function setA2() public {... */\n    tag_4:\n      tag_14\n      tag_15\n      jump\t// in\n    tag_14:\n      stop\n        /* \"contracts/230503_2.sol\":445:518  function setA3(string memory _a) public {... */\n    tag_5:\n      tag_16\n      0x04\n      dup1\n      calldatasize\n      sub\n      dup2\n      add\n      swap1\n      tag_17\n      swap2\n      swap1\n      tag_18\n      jump\t// in\n    tag_17:\n      tag_19\n      jump\t// in\n    tag_16:\n      stop\n        /* \"contracts/230503_2.sol\":526:603  function getA() public view returns(bytes memory) {... */\n    tag_6:\n      tag_20\n      tag_21\n      jump\t// in\n    tag_20:\n      mload(0x40)\n      tag_22\n      swap2\n      swap1\n      tag_23\n      jump\t// in\n    tag_22:\n      mload(0x40)\n      dup1\n      swap2\n      sub\n      swap1\n      return\n        /* \"contracts/230503_2.sol\":316:378  function setA(bytes memory _a) public {... */\n    tag_7:\n      tag_24\n      0x04\n      dup1\n      calldatasize\n      sub\n      dup2\n      add\n      swap1\n      tag_25\n      swap2\n      swap1\n      tag_26\n      jump\t// in\n    tag_25:\n      tag_27\n      jump\t// in\n    tag_24:\n      stop\n        /* \"contracts/230503_2.sol\":611:691  function add(uint _a) public pure returns(uint){... */\n    tag_11:\n        /* \"contracts/230503_2.sol\":653:657  uint */\n      0x00\n        /* \"contracts/230503_2.sol\":681:683  _a */\n      dup2\n        /* \"contracts/230503_2.sol\":676:678  _a */\n      dup3\n        /* \"contracts/230503_2.sol\":676:683  _a * _a */\n      tag_29\n      swap2\n      swap1\n      tag_30\n      jump\t// in\n    tag_29:\n        /* \"contracts/230503_2.sol\":669:683  return _a * _a */\n      swap1\n      pop\n        /* \"contracts/230503_2.sol\":611:691  function add(uint _a) public pure returns(uint){... */\n      swap2\n      swap1\n      pop\n      jump\t// out\n        /* \"contracts/230503_2.sol\":386:437  function setA2() public {... */\n    tag_15:\n        /* \"contracts/230503_2.sol\":421:429  a = \"16\" */\n      mload(0x40)\n      dup1\n      0x40\n      add\n      0x40\n      mstore\n      dup1\n      0x02\n      dup2\n      mstore\n      0x20\n      add\n      0x3136000000000000000000000000000000000000000000000000000000000000\n      dup2\n      mstore\n      pop\n        /* \"contracts/230503_2.sol\":421:422  a */\n      0x00\n        /* \"contracts/230503_2.sol\":421:429  a = \"16\" */\n      swap1\n      dup2\n      tag_32\n      swap2\n      swap1\n      tag_33\n      jump\t// in\n    tag_32:\n      pop\n        /* \"contracts/230503_2.sol\":386:437  function setA2() public {... */\n      jump\t// out\n        /* \"contracts/230503_2.sol\":445:518  function setA3(string memory _a) public {... */\n    tag_19:\n        /* \"contracts/230503_2.sol\":507:509  _a */\n      dup1\n        /* \"contracts/230503_2.sol\":497:498  a */\n      0x00\n        /* \"contracts/230503_2.sol\":497:510  a = bytes(_a) */\n      swap1\n      dup2\n      tag_35\n      swap2\n      swap1\n      tag_36\n      jump\t// in\n    tag_35:\n      pop\n        /* \"contracts/230503_2.sol\":445:518  function setA3(string memory _a) public {... */\n      pop\n      jump\t// out\n        /* \"contracts/230503_2.sol\":526:603  function getA() public view returns(bytes memory) {... */\n    tag_21:\n        /* \"contracts/230503_2.sol\":562:574  bytes memory */\n      0x60\n        /* \"contracts/230503_2.sol\":594:595  a */\n      0x00\n        /* \"contracts/230503_2.sol\":587:595  return a */\n      dup1\n      sload\n      tag_38\n      swap1\n      tag_39\n      jump\t// in\n    tag_38:\n      dup1\n      0x1f\n      add\n      0x20\n      dup1\n      swap2\n      div\n      mul\n      0x20\n      add\n      mload(0x40)\n      swap1\n      dup2\n      add\n      0x40\n      mstore\n      dup1\n      swap3\n      swap2\n      swap1\n      dup2\n      dup2\n      mstore\n      0x20\n      add\n      dup3\n      dup1\n      sload\n      tag_40\n      swap1\n      tag_39\n      jump\t// in\n    tag_40:\n      dup1\n      iszero\n      tag_41\n      jumpi\n      dup1\n      0x1f\n      lt\n      tag_42\n      jumpi\n      0x0100\n      dup1\n      dup4\n      sload\n      div\n      mul\n      dup4\n      mstore\n      swap2\n      0x20\n      add\n      swap2\n      jump(tag_41)\n    tag_42:\n      dup3\n      add\n      swap2\n      swap1\n      0x00\n      mstore\n      keccak256(0x00, 0x20)\n      swap1\n    tag_43:\n      dup2\n      sload\n      dup2\n      mstore\n      swap1\n      0x01\n      add\n      swap1\n      0x20\n      add\n      dup1\n      dup4\n      gt\n      tag_43\n      jumpi\n      dup3\n      swap1\n      sub\n      0x1f\n      and\n      dup3\n      add\n      swap2\n    tag_41:\n      pop\n      pop\n      pop\n      pop\n      pop\n      swap1\n      pop\n        /* \"contracts/230503_2.sol\":526:603  function getA() public view returns(bytes memory) {... */\n      swap1\n      jump\t// out\n        /* \"contracts/230503_2.sol\":316:378  function setA(bytes memory _a) public {... */\n    tag_27:\n        /* \"contracts/230503_2.sol\":368:370  _a */\n      dup1\n        /* \"contracts/230503_2.sol\":365:366  a */\n      0x00\n        /* \"contracts/230503_2.sol\":365:370  a =_a */\n      swap1\n      dup2\n      tag_45\n      swap2\n      swap1\n      tag_36\n      jump\t// in\n    tag_45:\n      pop\n        /* \"contracts/230503_2.sol\":316:378  function setA(bytes memory _a) public {... */\n      pop\n      jump\t// out\n        /* \"#utility.yul\":7:82   */\n    tag_46:\n        /* \"#utility.yul\":40:46   */\n      0x00\n        /* \"#utility.yul\":73:75   */\n      0x40\n        /* \"#utility.yul\":67:76   */\n      mload\n        /* \"#utility.yul\":57:76   */\n      swap1\n      pop\n        /* \"#utility.yul\":7:82   */\n      swap1\n      jump\t// out\n        /* \"#utility.yul\":88:205   */\n    tag_47:\n        /* \"#utility.yul\":197:198   */\n      0x00\n        /* \"#utility.yul\":194:195   */\n      dup1\n        /* \"#utility.yul\":187:199   */\n      revert\n        /* \"#utility.yul\":211:328   */\n    tag_48:\n        /* \"#utility.yul\":320:321   */\n      0x00\n        /* \"#utility.yul\":317:318   */\n      dup1\n        /* \"#utility.yul\":310:322   */\n      revert\n        /* \"#utility.yul\":334:411   */\n    tag_49:\n        /* \"#utility.yul\":371:378   */\n      0x00\n        /* \"#utility.yul\":400:405   */\n      dup2\n        /* \"#utility.yul\":389:405   */\n      swap1\n      pop\n        /* \"#utility.yul\":334:411   */\n      swap2\n      swap1\n      pop\n      jump\t// out\n        /* \"#utility.yul\":417:539   */\n    tag_50:\n        /* \"#utility.yul\":490:514   */\n      tag_94\n        /* \"#utility.yul\":508:513   */\n      dup2\n        /* \"#utility.yul\":490:514   */\n      tag_49\n      jump\t// in\n    tag_94:\n        /* \"#utility.yul\":483:488   */\n      dup2\n        /* \"#utility.yul\":480:515   */\n      eq\n        /* \"#utility.yul\":470:533   */\n      tag_95\n      jumpi\n        /* \"#utility.yul\":529:530   */\n      0x00\n        /* \"#utility.yul\":526:527   */\n      dup1\n        /* \"#utility.yul\":519:531   */\n      revert\n        /* \"#utility.yul\":470:533   */\n    tag_95:\n        /* \"#utility.yul\":417:539   */\n      pop\n      jump\t// out\n        /* \"#utility.yul\":545:684   */\n    tag_51:\n        /* \"#utility.yul\":591:596   */\n      0x00\n        /* \"#utility.yul\":629:635   */\n      dup2\n        /* \"#utility.yul\":616:636   */\n      calldataload\n        /* \"#utility.yul\":607:636   */\n      swap1\n      pop\n        /* \"#utility.yul\":645:678   */\n      tag_97\n        /* \"#utility.yul\":672:677   */\n      dup2\n        /* \"#utility.yul\":645:678   */\n      tag_50\n      jump\t// in\n    tag_97:\n        /* \"#utility.yul\":545:684   */\n      swap3\n      swap2\n      pop\n      pop\n      jump\t// out\n        /* \"#utility.yul\":690:1019   */\n    tag_10:\n        /* \"#utility.yul\":749:755   */\n      0x00\n        /* \"#utility.yul\":798:800   */\n      0x20\n        /* \"#utility.yul\":786:795   */\n      dup3\n        /* \"#utility.yul\":777:784   */\n      dup5\n        /* \"#utility.yul\":773:796   */\n      sub\n        /* \"#utility.yul\":769:801   */\n      slt\n        /* \"#utility.yul\":766:885   */\n      iszero\n      tag_99\n      jumpi\n        /* \"#utility.yul\":804:883   */\n      tag_100\n      tag_47\n      jump\t// in\n    tag_100:\n        /* \"#utility.yul\":766:885   */\n    tag_99:\n        /* \"#utility.yul\":924:925   */\n      0x00\n        /* \"#utility.yul\":949:1002   */\n      tag_101\n        /* \"#utility.yul\":994:1001   */\n      dup5\n        /* \"#utility.yul\":985:991   */\n      dup3\n        /* \"#utility.yul\":974:983   */\n      dup6\n        /* \"#utility.yul\":970:992   */\n      add\n        /* \"#utility.yul\":949:1002   */\n      tag_51\n      jump\t// in\n    tag_101:\n        /* \"#utility.yul\":939:1002   */\n      swap2\n      pop\n        /* \"#utility.yul\":895:1012   */\n      pop\n        /* \"#utility.yul\":690:1019   */\n      swap3\n      swap2\n      pop\n      pop\n      jump\t// out\n        /* \"#utility.yul\":1025:1143   */\n    tag_52:\n        /* \"#utility.yul\":1112:1136   */\n      tag_103\n        /* \"#utility.yul\":1130:1135   */\n      dup2\n        /* \"#utility.yul\":1112:1136   */\n      tag_49\n      jump\t// in\n    tag_103:\n        /* \"#utility.yul\":1107:1110   */\n      dup3\n        /* \"#utility.yul\":1100:1137   */\n      mstore\n        /* \"#utility.yul\":1025:1143   */\n      pop\n      pop\n      jump\t// out\n        /* \"#utility.yul\":1149:1371   */\n    tag_13:\n        /* \"#utility.yul\":1242:1246   */\n      0x00\n        /* \"#utility.yul\":1280:1282   */\n      0x20\n        /* \"#utility.yul\":1269:1278   */\n      dup3\n        /* \"#utility.yul\":1265:1283   */\n      add\n        /* \"#utility.yul\":1257:1283   */\n      swap1\n      pop\n        /* \"#utility.yul\":1293:1364   */\n      tag_105\n        /* \"#utility.yul\":1361:1362   */\n      0x00\n        /* \"#utility.yul\":1350:1359   */\n      dup4\n        /* \"#utility.yul\":1346:1363   */\n      add\n        /* \"#utility.yul\":1337:1343   */\n      dup5\n        /* \"#utility.yul\":1293:1364   */\n      tag_52\n      jump\t// in\n    tag_105:\n        /* \"#utility.yul\":1149:1371   */\n      swap3\n      swap2\n      pop\n      pop\n      jump\t// out\n        /* \"#utility.yul\":1377:1494   */\n    tag_53:\n        /* \"#utility.yul\":1486:1487   */\n      0x00\n        /* \"#utility.yul\":1483:1484   */\n      dup1\n        /* \"#utility.yul\":1476:1488   */\n      revert\n        /* \"#utility.yul\":1500:1617   */\n    tag_54:\n        /* \"#utility.yul\":1609:1610   */\n      0x00\n        /* \"#utility.yul\":1606:1607   */\n      dup1\n        /* \"#utility.yul\":1599:1611   */\n      revert\n        /* \"#utility.yul\":1623:1725   */\n    tag_55:\n        /* \"#utility.yul\":1664:1670   */\n      0x00\n        /* \"#utility.yul\":1715:1717   */\n      0x1f\n        /* \"#utility.yul\":1711:1718   */\n      not\n        /* \"#utility.yul\":1706:1708   */\n      0x1f\n        /* \"#utility.yul\":1699:1704   */\n      dup4\n        /* \"#utility.yul\":1695:1709   */\n      add\n        /* \"#utility.yul\":1691:1719   */\n      and\n        /* \"#utility.yul\":1681:1719   */\n      swap1\n      pop\n        /* \"#utility.yul\":1623:1725   */\n      swap2\n      swap1\n      pop\n      jump\t// out\n        /* \"#utility.yul\":1731:1911   */\n    tag_56:\n        /* \"#utility.yul\":1779:1856   */\n      0x4e487b7100000000000000000000000000000000000000000000000000000000\n        /* \"#utility.yul\":1776:1777   */\n      0x00\n        /* \"#utility.yul\":1769:1857   */\n      mstore\n        /* \"#utility.yul\":1876:1880   */\n      0x41\n        /* \"#utility.yul\":1873:1874   */\n      0x04\n        /* \"#utility.yul\":1866:1881   */\n      mstore\n        /* \"#utility.yul\":1900:1904   */\n      0x24\n        /* \"#utility.yul\":1897:1898   */\n      0x00\n        /* \"#utility.yul\":1890:1905   */\n      revert\n        /* \"#utility.yul\":1917:2198   */\n    tag_57:\n        /* \"#utility.yul\":2000:2027   */\n      tag_111\n        /* \"#utility.yul\":2022:2026   */\n      dup3\n        /* \"#utility.yul\":2000:2027   */\n      tag_55\n      jump\t// in\n    tag_111:\n        /* \"#utility.yul\":1992:1998   */\n      dup2\n        /* \"#utility.yul\":1988:2028   */\n      add\n        /* \"#utility.yul\":2130:2136   */\n      dup2\n        /* \"#utility.yul\":2118:2128   */\n      dup2\n        /* \"#utility.yul\":2115:2137   */\n      lt\n        /* \"#utility.yul\":2094:2112   */\n      0xffffffffffffffff\n        /* \"#utility.yul\":2082:2092   */\n      dup3\n        /* \"#utility.yul\":2079:2113   */\n      gt\n        /* \"#utility.yul\":2076:2138   */\n      or\n        /* \"#utility.yul\":2073:2161   */\n      iszero\n      tag_112\n      jumpi\n        /* \"#utility.yul\":2141:2159   */\n      tag_113\n      tag_56\n      jump\t// in\n    tag_113:\n        /* \"#utility.yul\":2073:2161   */\n    tag_112:\n        /* \"#utility.yul\":2181:2191   */\n      dup1\n        /* \"#utility.yul\":2177:2179   */\n      0x40\n        /* \"#utility.yul\":2170:2192   */\n      mstore\n        /* \"#utility.yul\":1960:2198   */\n      pop\n        /* \"#utility.yul\":1917:2198   */\n      pop\n      pop\n      jump\t// out\n        /* \"#utility.yul\":2204:2333   */\n    tag_58:\n        /* \"#utility.yul\":2238:2244   */\n      0x00\n        /* \"#utility.yul\":2265:2285   */\n      tag_115\n      tag_46\n      jump\t// in\n    tag_115:\n        /* \"#utility.yul\":2255:2285   */\n      swap1\n      pop\n        /* \"#utility.yul\":2294:2327   */\n      tag_116\n        /* \"#utility.yul\":2322:2326   */\n      dup3\n        /* \"#utility.yul\":2314:2320   */\n      dup3\n        /* \"#utility.yul\":2294:2327   */\n      tag_57\n      jump\t// in\n    tag_116:\n        /* \"#utility.yul\":2204:2333   */\n      swap2\n      swap1\n      pop\n      jump\t// out\n        /* \"#utility.yul\":2339:2647   */\n    tag_59:\n        /* \"#utility.yul\":2401:2405   */\n      0x00\n        /* \"#utility.yul\":2491:2509   */\n      0xffffffffffffffff\n        /* \"#utility.yul\":2483:2489   */\n      dup3\n        /* \"#utility.yul\":2480:2510   */\n      gt\n        /* \"#utility.yul\":2477:2533   */\n      iszero\n      tag_118\n      jumpi\n        /* \"#utility.yul\":2513:2531   */\n      tag_119\n      tag_56\n      jump\t// in\n    tag_119:\n        /* \"#utility.yul\":2477:2533   */\n    tag_118:\n        /* \"#utility.yul\":2551:2580   */\n      tag_120\n        /* \"#utility.yul\":2573:2579   */\n      dup3\n        /* \"#utility.yul\":2551:2580   */\n      tag_55\n      jump\t// in\n    tag_120:\n        /* \"#utility.yul\":2543:2580   */\n      swap1\n      pop\n        /* \"#utility.yul\":2635:2639   */\n      0x20\n        /* \"#utility.yul\":2629:2633   */\n      dup2\n        /* \"#utility.yul\":2625:2640   */\n      add\n        /* \"#utility.yul\":2617:2640   */\n      swap1\n      pop\n        /* \"#utility.yul\":2339:2647   */\n      swap2\n      swap1\n      pop\n      jump\t// out\n        /* \"#utility.yul\":2653:2799   */\n    tag_60:\n        /* \"#utility.yul\":2750:2756   */\n      dup3\n        /* \"#utility.yul\":2745:2748   */\n      dup2\n        /* \"#utility.yul\":2740:2743   */\n      dup4\n        /* \"#utility.yul\":2727:2757   */\n      calldatacopy\n        /* \"#utility.yul\":2791:2792   */\n      0x00\n        /* \"#utility.yul\":2782:2788   */\n      dup4\n        /* \"#utility.yul\":2777:2780   */\n      dup4\n        /* \"#utility.yul\":2773:2789   */\n      add\n        /* \"#utility.yul\":2766:2793   */\n      mstore\n        /* \"#utility.yul\":2653:2799   */\n      pop\n      pop\n      pop\n      jump\t// out\n        /* \"#utility.yul\":2805:3230   */\n    tag_61:\n        /* \"#utility.yul\":2883:2888   */\n      0x00\n        /* \"#utility.yul\":2908:2974   */\n      tag_123\n        /* \"#utility.yul\":2924:2973   */\n      tag_124\n        /* \"#utility.yul\":2966:2972   */\n      dup5\n        /* \"#utility.yul\":2924:2973   */\n      tag_59\n      jump\t// in\n    tag_124:\n        /* \"#utility.yul\":2908:2974   */\n      tag_58\n      jump\t// in\n    tag_123:\n        /* \"#utility.yul\":2899:2974   */\n      swap1\n      pop\n        /* \"#utility.yul\":2997:3003   */\n      dup3\n        /* \"#utility.yul\":2990:2995   */\n      dup2\n        /* \"#utility.yul\":2983:3004   */\n      mstore\n        /* \"#utility.yul\":3035:3039   */\n      0x20\n        /* \"#utility.yul\":3028:3033   */\n      dup2\n        /* \"#utility.yul\":3024:3040   */\n      add\n        /* \"#utility.yul\":3073:3076   */\n      dup5\n        /* \"#utility.yul\":3064:3070   */\n      dup5\n        /* \"#utility.yul\":3059:3062   */\n      dup5\n        /* \"#utility.yul\":3055:3071   */\n      add\n        /* \"#utility.yul\":3052:3077   */\n      gt\n        /* \"#utility.yul\":3049:3161   */\n      iszero\n      tag_125\n      jumpi\n        /* \"#utility.yul\":3080:3159   */\n      tag_126\n      tag_54\n      jump\t// in\n    tag_126:\n        /* \"#utility.yul\":3049:3161   */\n    tag_125:\n        /* \"#utility.yul\":3170:3224   */\n      tag_127\n        /* \"#utility.yul\":3217:3223   */\n      dup5\n        /* \"#utility.yul\":3212:3215   */\n      dup3\n        /* \"#utility.yul\":3207:3210   */\n      dup6\n        /* \"#utility.yul\":3170:3224   */\n      tag_60\n      jump\t// in\n    tag_127:\n        /* \"#utility.yul\":2889:3230   */\n      pop\n        /* \"#utility.yul\":2805:3230   */\n      swap4\n      swap3\n      pop\n      pop\n      pop\n      jump\t// out\n        /* \"#utility.yul\":3250:3590   */\n    tag_62:\n        /* \"#utility.yul\":3306:3311   */\n      0x00\n        /* \"#utility.yul\":3355:3358   */\n      dup3\n        /* \"#utility.yul\":3348:3352   */\n      0x1f\n        /* \"#utility.yul\":3340:3346   */\n      dup4\n        /* \"#utility.yul\":3336:3353   */\n      add\n        /* \"#utility.yul\":3332:3359   */\n      slt\n        /* \"#utility.yul\":3322:3444   */\n      tag_129\n      jumpi\n        /* \"#utility.yul\":3363:3442   */\n      tag_130\n      tag_53\n      jump\t// in\n    tag_130:\n        /* \"#utility.yul\":3322:3444   */\n    tag_129:\n        /* \"#utility.yul\":3480:3486   */\n      dup2\n        /* \"#utility.yul\":3467:3487   */\n      calldataload\n        /* \"#utility.yul\":3505:3584   */\n      tag_131\n        /* \"#utility.yul\":3580:3583   */\n      dup5\n        /* \"#utility.yul\":3572:3578   */\n      dup3\n        /* \"#utility.yul\":3565:3569   */\n      0x20\n        /* \"#utility.yul\":3557:3563   */\n      dup7\n        /* \"#utility.yul\":3553:3570   */\n      add\n        /* \"#utility.yul\":3505:3584   */\n      tag_61\n      jump\t// in\n    tag_131:\n        /* \"#utility.yul\":3496:3584   */\n      swap2\n      pop\n        /* \"#utility.yul\":3312:3590   */\n      pop\n        /* \"#utility.yul\":3250:3590   */\n      swap3\n      swap2\n      pop\n      pop\n      jump\t// out\n        /* \"#utility.yul\":3596:4105   */\n    tag_18:\n        /* \"#utility.yul\":3665:3671   */\n      0x00\n        /* \"#utility.yul\":3714:3716   */\n      0x20\n        /* \"#utility.yul\":3702:3711   */\n      dup3\n        /* \"#utility.yul\":3693:3700   */\n      dup5\n        /* \"#utility.yul\":3689:3712   */\n      sub\n        /* \"#utility.yul\":3685:3717   */\n      slt\n        /* \"#utility.yul\":3682:3801   */\n      iszero\n      tag_133\n      jumpi\n        /* \"#utility.yul\":3720:3799   */\n      tag_134\n      tag_47\n      jump\t// in\n    tag_134:\n        /* \"#utility.yul\":3682:3801   */\n    tag_133:\n        /* \"#utility.yul\":3868:3869   */\n      0x00\n        /* \"#utility.yul\":3857:3866   */\n      dup3\n        /* \"#utility.yul\":3853:3870   */\n      add\n        /* \"#utility.yul\":3840:3871   */\n      calldataload\n        /* \"#utility.yul\":3898:3916   */\n      0xffffffffffffffff\n        /* \"#utility.yul\":3890:3896   */\n      dup2\n        /* \"#utility.yul\":3887:3917   */\n      gt\n        /* \"#utility.yul\":3884:4001   */\n      iszero\n      tag_135\n      jumpi\n        /* \"#utility.yul\":3920:3999   */\n      tag_136\n      tag_48\n      jump\t// in\n    tag_136:\n        /* \"#utility.yul\":3884:4001   */\n    tag_135:\n        /* \"#utility.yul\":4025:4088   */\n      tag_137\n        /* \"#utility.yul\":4080:4087   */\n      dup5\n        /* \"#utility.yul\":4071:4077   */\n      dup3\n        /* \"#utility.yul\":4060:4069   */\n      dup6\n        /* \"#utility.yul\":4056:4078   */\n      add\n        /* \"#utility.yul\":4025:4088   */\n      tag_62\n      jump\t// in\n    tag_137:\n        /* \"#utility.yul\":4015:4088   */\n      swap2\n      pop\n        /* \"#utility.yul\":3811:4098   */\n      pop\n        /* \"#utility.yul\":3596:4105   */\n      swap3\n      swap2\n      pop\n      pop\n      jump\t// out\n        /* \"#utility.yul\":4111:4209   */\n    tag_63:\n        /* \"#utility.yul\":4162:4168   */\n      0x00\n        /* \"#utility.yul\":4196:4201   */\n      dup2\n        /* \"#utility.yul\":4190:4202   */\n      mload\n        /* \"#utility.yul\":4180:4202   */\n      swap1\n      pop\n        /* \"#utility.yul\":4111:4209   */\n      swap2\n      swap1\n      pop\n      jump\t// out\n        /* \"#utility.yul\":4215:4383   */\n    tag_64:\n        /* \"#utility.yul\":4298:4309   */\n      0x00\n        /* \"#utility.yul\":4332:4338   */\n      dup3\n        /* \"#utility.yul\":4327:4330   */\n      dup3\n        /* \"#utility.yul\":4320:4339   */\n      mstore\n        /* \"#utility.yul\":4372:4376   */\n      0x20\n        /* \"#utility.yul\":4367:4370   */\n      dup3\n        /* \"#utility.yul\":4363:4377   */\n      add\n        /* \"#utility.yul\":4348:4377   */\n      swap1\n      pop\n        /* \"#utility.yul\":4215:4383   */\n      swap3\n      swap2\n      pop\n      pop\n      jump\t// out\n        /* \"#utility.yul\":4389:4635   */\n    tag_65:\n        /* \"#utility.yul\":4470:4471   */\n      0x00\n        /* \"#utility.yul\":4480:4593   */\n    tag_141:\n        /* \"#utility.yul\":4494:4500   */\n      dup4\n        /* \"#utility.yul\":4491:4492   */\n      dup2\n        /* \"#utility.yul\":4488:4501   */\n      lt\n        /* \"#utility.yul\":4480:4593   */\n      iszero\n      tag_143\n      jumpi\n        /* \"#utility.yul\":4579:4580   */\n      dup1\n        /* \"#utility.yul\":4574:4577   */\n      dup3\n        /* \"#utility.yul\":4570:4581   */\n      add\n        /* \"#utility.yul\":4564:4582   */\n      mload\n        /* \"#utility.yul\":4560:4561   */\n      dup2\n        /* \"#utility.yul\":4555:4558   */\n      dup5\n        /* \"#utility.yul\":4551:4562   */\n      add\n        /* \"#utility.yul\":4544:4583   */\n      mstore\n        /* \"#utility.yul\":4516:4518   */\n      0x20\n        /* \"#utility.yul\":4513:4514   */\n      dup2\n        /* \"#utility.yul\":4509:4519   */\n      add\n        /* \"#utility.yul\":4504:4519   */\n      swap1\n      pop\n        /* \"#utility.yul\":4480:4593   */\n      jump(tag_141)\n    tag_143:\n        /* \"#utility.yul\":4627:4628   */\n      0x00\n        /* \"#utility.yul\":4618:4624   */\n      dup5\n        /* \"#utility.yul\":4613:4616   */\n      dup5\n        /* \"#utility.yul\":4609:4625   */\n      add\n        /* \"#utility.yul\":4602:4629   */\n      mstore\n        /* \"#utility.yul\":4451:4635   */\n      pop\n        /* \"#utility.yul\":4389:4635   */\n      pop\n      pop\n      pop\n      jump\t// out\n        /* \"#utility.yul\":4641:5014   */\n    tag_66:\n        /* \"#utility.yul\":4727:4730   */\n      0x00\n        /* \"#utility.yul\":4755:4793   */\n      tag_145\n        /* \"#utility.yul\":4787:4792   */\n      dup3\n        /* \"#utility.yul\":4755:4793   */\n      tag_63\n      jump\t// in\n    tag_145:\n        /* \"#utility.yul\":4809:4879   */\n      tag_146\n        /* \"#utility.yul\":4872:4878   */\n      dup2\n        /* \"#utility.yul\":4867:4870   */\n      dup6\n        /* \"#utility.yul\":4809:4879   */\n      tag_64\n      jump\t// in\n    tag_146:\n        /* \"#utility.yul\":4802:4879   */\n      swap4\n      pop\n        /* \"#utility.yul\":4888:4953   */\n      tag_147\n        /* \"#utility.yul\":4946:4952   */\n      dup2\n        /* \"#utility.yul\":4941:4944   */\n      dup6\n        /* \"#utility.yul\":4934:4938   */\n      0x20\n        /* \"#utility.yul\":4927:4932   */\n      dup7\n        /* \"#utility.yul\":4923:4939   */\n      add\n        /* \"#utility.yul\":4888:4953   */\n      tag_65\n      jump\t// in\n    tag_147:\n        /* \"#utility.yul\":4978:5007   */\n      tag_148\n        /* \"#utility.yul\":5000:5006   */\n      dup2\n        /* \"#utility.yul\":4978:5007   */\n      tag_55\n      jump\t// in\n    tag_148:\n        /* \"#utility.yul\":4973:4976   */\n      dup5\n        /* \"#utility.yul\":4969:5008   */\n      add\n        /* \"#utility.yul\":4962:5008   */\n      swap2\n      pop\n        /* \"#utility.yul\":4731:5014   */\n      pop\n        /* \"#utility.yul\":4641:5014   */\n      swap3\n      swap2\n      pop\n      pop\n      jump\t// out\n        /* \"#utility.yul\":5020:5329   */\n    tag_23:\n        /* \"#utility.yul\":5131:5135   */\n      0x00\n        /* \"#utility.yul\":5169:5171   */\n      0x20\n        /* \"#utility.yul\":5158:5167   */\n      dup3\n        /* \"#utility.yul\":5154:5172   */\n      add\n        /* \"#utility.yul\":5146:5172   */\n      swap1\n      pop\n        /* \"#utility.yul\":5218:5227   */\n      dup2\n        /* \"#utility.yul\":5212:5216   */\n      dup2\n        /* \"#utility.yul\":5208:5228   */\n      sub\n        /* \"#utility.yul\":5204:5205   */\n      0x00\n        /* \"#utility.yul\":5193:5202   */\n      dup4\n        /* \"#utility.yul\":5189:5206   */\n      add\n        /* \"#utility.yul\":5182:5229   */\n      mstore\n        /* \"#utility.yul\":5246:5322   */\n      tag_150\n        /* \"#utility.yul\":5317:5321   */\n      dup2\n        /* \"#utility.yul\":5308:5314   */\n      dup5\n        /* \"#utility.yul\":5246:5322   */\n      tag_66\n      jump\t// in\n    tag_150:\n        /* \"#utility.yul\":5238:5322   */\n      swap1\n      pop\n        /* \"#utility.yul\":5020:5329   */\n      swap3\n      swap2\n      pop\n      pop\n      jump\t// out\n        /* \"#utility.yul\":5335:5642   */\n    tag_67:\n        /* \"#utility.yul\":5396:5400   */\n      0x00\n        /* \"#utility.yul\":5486:5504   */\n      0xffffffffffffffff\n        /* \"#utility.yul\":5478:5484   */\n      dup3\n        /* \"#utility.yul\":5475:5505   */\n      gt\n        /* \"#utility.yul\":5472:5528   */\n      iszero\n      tag_152\n      jumpi\n        /* \"#utility.yul\":5508:5526   */\n      tag_153\n      tag_56\n      jump\t// in\n    tag_153:\n        /* \"#utility.yul\":5472:5528   */\n    tag_152:\n        /* \"#utility.yul\":5546:5575   */\n      tag_154\n        /* \"#utility.yul\":5568:5574   */\n      dup3\n        /* \"#utility.yul\":5546:5575   */\n      tag_55\n      jump\t// in\n    tag_154:\n        /* \"#utility.yul\":5538:5575   */\n      swap1\n      pop\n        /* \"#utility.yul\":5630:5634   */\n      0x20\n        /* \"#utility.yul\":5624:5628   */\n      dup2\n        /* \"#utility.yul\":5620:5635   */\n      add\n        /* \"#utility.yul\":5612:5635   */\n      swap1\n      pop\n        /* \"#utility.yul\":5335:5642   */\n      swap2\n      swap1\n      pop\n      jump\t// out\n        /* \"#utility.yul\":5648:6071   */\n    tag_68:\n        /* \"#utility.yul\":5725:5730   */\n      0x00\n        /* \"#utility.yul\":5750:5815   */\n      tag_156\n        /* \"#utility.yul\":5766:5814   */\n      tag_157\n        /* \"#utility.yul\":5807:5813   */\n      dup5\n        /* \"#utility.yul\":5766:5814   */\n      tag_67\n      jump\t// in\n    tag_157:\n        /* \"#utility.yul\":5750:5815   */\n      tag_58\n      jump\t// in\n    tag_156:\n        /* \"#utility.yul\":5741:5815   */\n      swap1\n      pop\n        /* \"#utility.yul\":5838:5844   */\n      dup3\n        /* \"#utility.yul\":5831:5836   */\n      dup2\n        /* \"#utility.yul\":5824:5845   */\n      mstore\n        /* \"#utility.yul\":5876:5880   */\n      0x20\n        /* \"#utility.yul\":5869:5874   */\n      dup2\n        /* \"#utility.yul\":5865:5881   */\n      add\n        /* \"#utility.yul\":5914:5917   */\n      dup5\n        /* \"#utility.yul\":5905:5911   */\n      dup5\n        /* \"#utility.yul\":5900:5903   */\n      dup5\n        /* \"#utility.yul\":5896:5912   */\n      add\n        /* \"#utility.yul\":5893:5918   */\n      gt\n        /* \"#utility.yul\":5890:6002   */\n      iszero\n      tag_158\n      jumpi\n        /* \"#utility.yul\":5921:6000   */\n      tag_159\n      tag_54\n      jump\t// in\n    tag_159:\n        /* \"#utility.yul\":5890:6002   */\n    tag_158:\n        /* \"#utility.yul\":6011:6065   */\n      tag_160\n        /* \"#utility.yul\":6058:6064   */\n      dup5\n        /* \"#utility.yul\":6053:6056   */\n      dup3\n        /* \"#utility.yul\":6048:6051   */\n      dup6\n        /* \"#utility.yul\":6011:6065   */\n      tag_60\n      jump\t// in\n    tag_160:\n        /* \"#utility.yul\":5731:6071   */\n      pop\n        /* \"#utility.yul\":5648:6071   */\n      swap4\n      swap3\n      pop\n      pop\n      pop\n      jump\t// out\n        /* \"#utility.yul\":6090:6428   */\n    tag_69:\n        /* \"#utility.yul\":6145:6150   */\n      0x00\n        /* \"#utility.yul\":6194:6197   */\n      dup3\n        /* \"#utility.yul\":6187:6191   */\n      0x1f\n        /* \"#utility.yul\":6179:6185   */\n      dup4\n        /* \"#utility.yul\":6175:6192   */\n      add\n        /* \"#utility.yul\":6171:6198   */\n      slt\n        /* \"#utility.yul\":6161:6283   */\n      tag_162\n      jumpi\n        /* \"#utility.yul\":6202:6281   */\n      tag_163\n      tag_53\n      jump\t// in\n    tag_163:\n        /* \"#utility.yul\":6161:6283   */\n    tag_162:\n        /* \"#utility.yul\":6319:6325   */\n      dup2\n        /* \"#utility.yul\":6306:6326   */\n      calldataload\n        /* \"#utility.yul\":6344:6422   */\n      tag_164\n        /* \"#utility.yul\":6418:6421   */\n      dup5\n        /* \"#utility.yul\":6410:6416   */\n      dup3\n        /* \"#utility.yul\":6403:6407   */\n      0x20\n        /* \"#utility.yul\":6395:6401   */\n      dup7\n        /* \"#utility.yul\":6391:6408   */\n      add\n        /* \"#utility.yul\":6344:6422   */\n      tag_68\n      jump\t// in\n    tag_164:\n        /* \"#utility.yul\":6335:6422   */\n      swap2\n      pop\n        /* \"#utility.yul\":6151:6428   */\n      pop\n        /* \"#utility.yul\":6090:6428   */\n      swap3\n      swap2\n      pop\n      pop\n      jump\t// out\n        /* \"#utility.yul\":6434:6941   */\n    tag_26:\n        /* \"#utility.yul\":6502:6508   */\n      0x00\n        /* \"#utility.yul\":6551:6553   */\n      0x20\n        /* \"#utility.yul\":6539:6548   */\n      dup3\n        /* \"#utility.yul\":6530:6537   */\n      dup5\n        /* \"#utility.yul\":6526:6549   */\n      sub\n        /* \"#utility.yul\":6522:6554   */\n      slt\n        /* \"#utility.yul\":6519:6638   */\n      iszero\n      tag_166\n      jumpi\n        /* \"#utility.yul\":6557:6636   */\n      tag_167\n      tag_47\n      jump\t// in\n    tag_167:\n        /* \"#utility.yul\":6519:6638   */\n    tag_166:\n        /* \"#utility.yul\":6705:6706   */\n      0x00\n        /* \"#utility.yul\":6694:6703   */\n      dup3\n        /* \"#utility.yul\":6690:6707   */\n      add\n        /* \"#utility.yul\":6677:6708   */\n      calldataload\n        /* \"#utility.yul\":6735:6753   */\n      0xffffffffffffffff\n        /* \"#utility.yul\":6727:6733   */\n      dup2\n        /* \"#utility.yul\":6724:6754   */\n      gt\n        /* \"#utility.yul\":6721:6838   */\n      iszero\n      tag_168\n      jumpi\n        /* \"#utility.yul\":6757:6836   */\n      tag_169\n      tag_48\n      jump\t// in\n    tag_169:\n        /* \"#utility.yul\":6721:6838   */\n    tag_168:\n        /* \"#utility.yul\":6862:6924   */\n      tag_170\n        /* \"#utility.yul\":6916:6923   */\n      dup5\n        /* \"#utility.yul\":6907:6913   */\n      dup3\n        /* \"#utility.yul\":6896:6905   */\n      dup6\n        /* \"#utility.yul\":6892:6914   */\n      add\n        /* \"#utility.yul\":6862:6924   */\n      tag_69\n      jump\t// in\n    tag_170:\n        /* \"#utility.yul\":6852:6924   */\n      swap2\n      pop\n        /* \"#utility.yul\":6648:6934   */\n      pop\n        /* \"#utility.yul\":6434:6941   */\n      swap3\n      swap2\n      pop\n      pop\n      jump\t// out\n        /* \"#utility.yul\":6947:7127   */\n    tag_70:\n        /* \"#utility.yul\":6995:7072   */\n      0x4e487b7100000000000000000000000000000000000000000000000000000000\n        /* \"#utility.yul\":6992:6993   */\n      0x00\n        /* \"#utility.yul\":6985:7073   */\n      mstore\n        /* \"#utility.yul\":7092:7096   */\n      0x11\n        /* \"#utility.yul\":7089:7090   */\n      0x04\n        /* \"#utility.yul\":7082:7097   */\n      mstore\n        /* \"#utility.yul\":7116:7120   */\n      0x24\n        /* \"#utility.yul\":7113:7114   */\n      0x00\n        /* \"#utility.yul\":7106:7121   */\n      revert\n        /* \"#utility.yul\":7133:7543   */\n    tag_30:\n        /* \"#utility.yul\":7173:7180   */\n      0x00\n        /* \"#utility.yul\":7196:7216   */\n      tag_173\n        /* \"#utility.yul\":7214:7215   */\n      dup3\n        /* \"#utility.yul\":7196:7216   */\n      tag_49\n      jump\t// in\n    tag_173:\n        /* \"#utility.yul\":7191:7216   */\n      swap2\n      pop\n        /* \"#utility.yul\":7230:7250   */\n      tag_174\n        /* \"#utility.yul\":7248:7249   */\n      dup4\n        /* \"#utility.yul\":7230:7250   */\n      tag_49\n      jump\t// in\n    tag_174:\n        /* \"#utility.yul\":7225:7250   */\n      swap3\n      pop\n        /* \"#utility.yul\":7285:7286   */\n      dup3\n        /* \"#utility.yul\":7282:7283   */\n      dup3\n        /* \"#utility.yul\":7278:7287   */\n      mul\n        /* \"#utility.yul\":7307:7337   */\n      tag_175\n        /* \"#utility.yul\":7325:7336   */\n      dup2\n        /* \"#utility.yul\":7307:7337   */\n      tag_49\n      jump\t// in\n    tag_175:\n        /* \"#utility.yul\":7296:7337   */\n      swap2\n      pop\n        /* \"#utility.yul\":7486:7487   */\n      dup3\n        /* \"#utility.yul\":7477:7484   */\n      dup3\n        /* \"#utility.yul\":7473:7488   */\n      div\n        /* \"#utility.yul\":7470:7471   */\n      dup5\n        /* \"#utility.yul\":7467:7489   */\n      eq\n        /* \"#utility.yul\":7447:7448   */\n      dup4\n        /* \"#utility.yul\":7440:7449   */\n      iszero\n        /* \"#utility.yul\":7420:7503   */\n      or\n        /* \"#utility.yul\":7397:7536   */\n      tag_176\n      jumpi\n        /* \"#utility.yul\":7516:7534   */\n      tag_177\n      tag_70\n      jump\t// in\n    tag_177:\n        /* \"#utility.yul\":7397:7536   */\n    tag_176:\n        /* \"#utility.yul\":7181:7543   */\n      pop\n        /* \"#utility.yul\":7133:7543   */\n      swap3\n      swap2\n      pop\n      pop\n      jump\t// out\n        /* \"#utility.yul\":7549:7648   */\n    tag_71:\n        /* \"#utility.yul\":7601:7607   */\n      0x00\n        /* \"#utility.yul\":7635:7640   */\n      dup2\n        /* \"#utility.yul\":7629:7641   */\n      mload\n        /* \"#utility.yul\":7619:7641   */\n      swap1\n      pop\n        /* \"#utility.yul\":7549:7648   */\n      swap2\n      swap1\n      pop\n      jump\t// out\n        /* \"#utility.yul\":7654:7834   */\n    tag_72:\n        /* \"#utility.yul\":7702:7779   */\n      0x4e487b7100000000000000000000000000000000000000000000000000000000\n        /* \"#utility.yul\":7699:7700   */\n      0x00\n        /* \"#utility.yul\":7692:7780   */\n      mstore\n        /* \"#utility.yul\":7799:7803   */\n      0x22\n        /* \"#utility.yul\":7796:7797   */\n      0x04\n        /* \"#utility.yul\":7789:7804   */\n      mstore\n        /* \"#utility.yul\":7823:7827   */\n      0x24\n        /* \"#utility.yul\":7820:7821   */\n      0x00\n        /* \"#utility.yul\":7813:7828   */\n      revert\n        /* \"#utility.yul\":7840:8160   */\n    tag_39:\n        /* \"#utility.yul\":7884:7890   */\n      0x00\n        /* \"#utility.yul\":7921:7922   */\n      0x02\n        /* \"#utility.yul\":7915:7919   */\n      dup3\n        /* \"#utility.yul\":7911:7923   */\n      div\n        /* \"#utility.yul\":7901:7923   */\n      swap1\n      pop\n        /* \"#utility.yul\":7968:7969   */\n      0x01\n        /* \"#utility.yul\":7962:7966   */\n      dup3\n        /* \"#utility.yul\":7958:7970   */\n      and\n        /* \"#utility.yul\":7989:8007   */\n      dup1\n        /* \"#utility.yul\":7979:8060   */\n      tag_181\n      jumpi\n        /* \"#utility.yul\":8045:8049   */\n      0x7f\n        /* \"#utility.yul\":8037:8043   */\n      dup3\n        /* \"#utility.yul\":8033:8050   */\n      and\n        /* \"#utility.yul\":8023:8050   */\n      swap2\n      pop\n        /* \"#utility.yul\":7979:8060   */\n    tag_181:\n        /* \"#utility.yul\":8107:8109   */\n      0x20\n        /* \"#utility.yul\":8099:8105   */\n      dup3\n        /* \"#utility.yul\":8096:8110   */\n      lt\n        /* \"#utility.yul\":8076:8094   */\n      dup2\n        /* \"#utility.yul\":8073:8111   */\n      sub\n        /* \"#utility.yul\":8070:8154   */\n      tag_182\n      jumpi\n        /* \"#utility.yul\":8126:8144   */\n      tag_183\n      tag_72\n      jump\t// in\n    tag_183:\n        /* \"#utility.yul\":8070:8154   */\n    tag_182:\n        /* \"#utility.yul\":7891:8160   */\n      pop\n        /* \"#utility.yul\":7840:8160   */\n      swap2\n      swap1\n      pop\n      jump\t// out\n        /* \"#utility.yul\":8166:8306   */\n    tag_73:\n        /* \"#utility.yul\":8214:8218   */\n      0x00\n        /* \"#utility.yul\":8237:8240   */\n      dup2\n        /* \"#utility.yul\":8229:8240   */\n      swap1\n      pop\n        /* \"#utility.yul\":8260:8263   */\n      dup2\n        /* \"#utility.yul\":8257:8258   */\n      0x00\n        /* \"#utility.yul\":8250:8264   */\n      mstore\n        /* \"#utility.yul\":8294:8298   */\n      0x20\n        /* \"#utility.yul\":8291:8292   */\n      0x00\n        /* \"#utility.yul\":8281:8299   */\n      keccak256\n        /* \"#utility.yul\":8273:8299   */\n      swap1\n      pop\n        /* \"#utility.yul\":8166:8306   */\n      swap2\n      swap1\n      pop\n      jump\t// out\n        /* \"#utility.yul\":8312:8405   */\n    tag_74:\n        /* \"#utility.yul\":8349:8355   */\n      0x00\n        /* \"#utility.yul\":8396:8398   */\n      0x20\n        /* \"#utility.yul\":8391:8393   */\n      0x1f\n        /* \"#utility.yul\":8384:8389   */\n      dup4\n        /* \"#utility.yul\":8380:8394   */\n      add\n        /* \"#utility.yul\":8376:8399   */\n      div\n        /* \"#utility.yul\":8366:8399   */\n      swap1\n      pop\n        /* \"#utility.yul\":8312:8405   */\n      swap2\n      swap1\n      pop\n      jump\t// out\n        /* \"#utility.yul\":8411:8518   */\n    tag_75:\n        /* \"#utility.yul\":8455:8463   */\n      0x00\n        /* \"#utility.yul\":8505:8510   */\n      dup3\n        /* \"#utility.yul\":8499:8503   */\n      dup3\n        /* \"#utility.yul\":8495:8511   */\n      shl\n        /* \"#utility.yul\":8474:8511   */\n      swap1\n      pop\n        /* \"#utility.yul\":8411:8518   */\n      swap3\n      swap2\n      pop\n      pop\n      jump\t// out\n        /* \"#utility.yul\":8524:8917   */\n    tag_76:\n        /* \"#utility.yul\":8593:8599   */\n      0x00\n        /* \"#utility.yul\":8643:8644   */\n      0x08\n        /* \"#utility.yul\":8631:8641   */\n      dup4\n        /* \"#utility.yul\":8627:8645   */\n      mul\n        /* \"#utility.yul\":8666:8763   */\n      tag_188\n        /* \"#utility.yul\":8696:8762   */\n      0xffffffffffffffffffffffffffffffffffffffffffffffffffffffffffffffff\n        /* \"#utility.yul\":8685:8694   */\n      dup3\n        /* \"#utility.yul\":8666:8763   */\n      tag_75\n      jump\t// in\n    tag_188:\n        /* \"#utility.yul\":8784:8823   */\n      tag_189\n        /* \"#utility.yul\":8814:8822   */\n      dup7\n        /* \"#utility.yul\":8803:8812   */\n      dup4\n        /* \"#utility.yul\":8784:8823   */\n      tag_75\n      jump\t// in\n    tag_189:\n        /* \"#utility.yul\":8772:8823   */\n      swap6\n      pop\n        /* \"#utility.yul\":8856:8860   */\n      dup1\n        /* \"#utility.yul\":8852:8861   */\n      not\n        /* \"#utility.yul\":8845:8850   */\n      dup5\n        /* \"#utility.yul\":8841:8862   */\n      and\n        /* \"#utility.yul\":8832:8862   */\n      swap4\n      pop\n        /* \"#utility.yul\":8905:8909   */\n      dup1\n        /* \"#utility.yul\":8895:8903   */\n      dup7\n        /* \"#utility.yul\":8891:8910   */\n      and\n        /* \"#utility.yul\":8884:8889   */\n      dup5\n        /* \"#utility.yul\":8881:8911   */\n      or\n        /* \"#utility.yul\":8871:8911   */\n      swap3\n      pop\n        /* \"#utility.yul\":8600:8917   */\n      pop\n      pop\n        /* \"#utility.yul\":8524:8917   */\n      swap4\n      swap3\n      pop\n      pop\n      pop\n      jump\t// out\n        /* \"#utility.yul\":8923:8983   */\n    tag_77:\n        /* \"#utility.yul\":8951:8954   */\n      0x00\n        /* \"#utility.yul\":8972:8977   */\n      dup2\n        /* \"#utility.yul\":8965:8977   */\n      swap1\n      pop\n        /* \"#utility.yul\":8923:8983   */\n      swap2\n      swap1\n      pop\n      jump\t// out\n        /* \"#utility.yul\":8989:9131   */\n    tag_78:\n        /* \"#utility.yul\":9039:9048   */\n      0x00\n        /* \"#utility.yul\":9072:9125   */\n      tag_192\n        /* \"#utility.yul\":9090:9124   */\n      tag_193\n        /* \"#utility.yul\":9099:9123   */\n      tag_194\n        /* \"#utility.yul\":9117:9122   */\n      dup5\n        /* \"#utility.yul\":9099:9123   */\n      tag_49\n      jump\t// in\n    tag_194:\n        /* \"#utility.yul\":9090:9124   */\n      tag_77\n      jump\t// in\n    tag_193:\n        /* \"#utility.yul\":9072:9125   */\n      tag_49\n      jump\t// in\n    tag_192:\n        /* \"#utility.yul\":9059:9125   */\n      swap1\n      pop\n        /* \"#utility.yul\":8989:9131   */\n      swap2\n      swap1\n      pop\n      jump\t// out\n        /* \"#utility.yul\":9137:9212   */\n    tag_79:\n        /* \"#utility.yul\":9180:9183   */\n      0x00\n        /* \"#utility.yul\":9201:9206   */\n      dup2\n        /* \"#utility.yul\":9194:9206   */\n      swap1\n      pop\n        /* \"#utility.yul\":9137:9212   */\n      swap2\n      swap1\n      pop\n      jump\t// out\n        /* \"#utility.yul\":9218:9487   */\n    tag_80:\n        /* \"#utility.yul\":9328:9367   */\n      tag_197\n        /* \"#utility.yul\":9359:9366   */\n      dup4\n        /* \"#utility.yul\":9328:9367   */\n      tag_78\n      jump\t// in\n    tag_197:\n        /* \"#utility.yul\":9389:9480   */\n      tag_198\n        /* \"#utility.yul\":9438:9479   */\n      tag_199\n        /* \"#utility.yul\":9462:9478   */\n      dup3\n        /* \"#utility.yul\":9438:9479   */\n      tag_79\n      jump\t// in\n    tag_199:\n        /* \"#utility.yul\":9430:9436   */\n      dup5\n        /* \"#utility.yul\":9423:9427   */\n      dup5\n        /* \"#utility.yul\":9417:9428   */\n      sload\n        /* \"#utility.yul\":9389:9480   */\n      tag_76\n      jump\t// in\n    tag_198:\n        /* \"#utility.yul\":9383:9387   */\n      dup3\n        /* \"#utility.yul\":9376:9481   */\n      sstore\n        /* \"#utility.yul\":9294:9487   */\n      pop\n        /* \"#utility.yul\":9218:9487   */\n      pop\n      pop\n      pop\n      jump\t// out\n        /* \"#utility.yul\":9493:9566   */\n    tag_81:\n        /* \"#utility.yul\":9538:9541   */\n      0x00\n        /* \"#utility.yul\":9493:9566   */\n      swap1\n      jump\t// out\n        /* \"#utility.yul\":9572:9761   */\n    tag_82:\n        /* \"#utility.yul\":9649:9681   */\n      tag_202\n      tag_81\n      jump\t// in\n    tag_202:\n        /* \"#utility.yul\":9690:9755   */\n      tag_203\n        /* \"#utility.yul\":9748:9754   */\n      dup2\n        /* \"#utility.yul\":9740:9746   */\n      dup5\n        /* \"#utility.yul\":9734:9738   */\n      dup5\n        /* \"#utility.yul\":9690:9755   */\n      tag_80\n      jump\t// in\n    tag_203:\n        /* \"#utility.yul\":9625:9761   */\n      pop\n        /* \"#utility.yul\":9572:9761   */\n      pop\n      pop\n      jump\t// out\n        /* \"#utility.yul\":9767:9953   */\n    tag_83:\n        /* \"#utility.yul\":9827:9947   */\n    tag_205:\n        /* \"#utility.yul\":9844:9847   */\n      dup2\n        /* \"#utility.yul\":9837:9842   */\n      dup2\n        /* \"#utility.yul\":9834:9848   */\n      lt\n        /* \"#utility.yul\":9827:9947   */\n      iszero\n      tag_207\n      jumpi\n        /* \"#utility.yul\":9898:9937   */\n      tag_208\n        /* \"#utility.yul\":9935:9936   */\n      0x00\n        /* \"#utility.yul\":9928:9933   */\n      dup3\n        /* \"#utility.yul\":9898:9937   */\n      tag_82\n      jump\t// in\n    tag_208:\n        /* \"#utility.yul\":9871:9872   */\n      0x01\n        /* \"#utility.yul\":9864:9869   */\n      dup2\n        /* \"#utility.yul\":9860:9873   */\n      add\n        /* \"#utility.yul\":9851:9873   */\n      swap1\n      pop\n        /* \"#utility.yul\":9827:9947   */\n      jump(tag_205)\n    tag_207:\n        /* \"#utility.yul\":9767:9953   */\n      pop\n      pop\n      jump\t// out\n        /* \"#utility.yul\":9959:10500   */\n    tag_84:\n        /* \"#utility.yul\":10059:10061   */\n      0x1f\n        /* \"#utility.yul\":10054:10057   */\n      dup3\n        /* \"#utility.yul\":10051:10062   */\n      gt\n        /* \"#utility.yul\":10048:10493   */\n      iszero\n      tag_210\n      jumpi\n        /* \"#utility.yul\":10093:10130   */\n      tag_211\n        /* \"#utility.yul\":10124:10129   */\n      dup2\n        /* \"#utility.yul\":10093:10130   */\n      tag_73\n      jump\t// in\n    tag_211:\n        /* \"#utility.yul\":10176:10205   */\n      tag_212\n        /* \"#utility.yul\":10194:10204   */\n      dup5\n        /* \"#utility.yul\":10176:10205   */\n      tag_74\n      jump\t// in\n    tag_212:\n        /* \"#utility.yul\":10166:10174   */\n      dup2\n        /* \"#utility.yul\":10162:10206   */\n      add\n        /* \"#utility.yul\":10359:10361   */\n      0x20\n        /* \"#utility.yul\":10347:10357   */\n      dup6\n        /* \"#utility.yul\":10344:10362   */\n      lt\n        /* \"#utility.yul\":10341:10390   */\n      iszero\n      tag_213\n      jumpi\n        /* \"#utility.yul\":10380:10388   */\n      dup2\n        /* \"#utility.yul\":10365:10388   */\n      swap1\n      pop\n        /* \"#utility.yul\":10341:10390   */\n    tag_213:\n        /* \"#utility.yul\":10403:10483   */\n      tag_214\n        /* \"#utility.yul\":10459:10481   */\n      tag_215\n        /* \"#utility.yul\":10477:10480   */\n      dup6\n        /* \"#utility.yul\":10459:10481   */\n      tag_74\n      jump\t// in\n    tag_215:\n        /* \"#utility.yul\":10449:10457   */\n      dup4\n        /* \"#utility.yul\":10445:10482   */\n      add\n        /* \"#utility.yul\":10432:10443   */\n      dup3\n        /* \"#utility.yul\":10403:10483   */\n      tag_83\n      jump\t// in\n    tag_214:\n        /* \"#utility.yul\":10063:10493   */\n      pop\n      pop\n        /* \"#utility.yul\":10048:10493   */\n    tag_210:\n        /* \"#utility.yul\":9959:10500   */\n      pop\n      pop\n      pop\n      jump\t// out\n        /* \"#utility.yul\":10506:10623   */\n    tag_85:\n        /* \"#utility.yul\":10560:10568   */\n      0x00\n        /* \"#utility.yul\":10610:10615   */\n      dup3\n        /* \"#utility.yul\":10604:10608   */\n      dup3\n        /* \"#utility.yul\":10600:10616   */\n      shr\n        /* \"#utility.yul\":10579:10616   */\n      swap1\n      pop\n        /* \"#utility.yul\":10506:10623   */\n      swap3\n      swap2\n      pop\n      pop\n      jump\t// out\n        /* \"#utility.yul\":10629:10798   */\n    tag_86:\n        /* \"#utility.yul\":10673:10679   */\n      0x00\n        /* \"#utility.yul\":10706:10757   */\n      tag_218\n        /* \"#utility.yul\":10754:10755   */\n      0x00\n        /* \"#utility.yul\":10750:10756   */\n      not\n        /* \"#utility.yul\":10742:10747   */\n      dup5\n        /* \"#utility.yul\":10739:10740   */\n      0x08\n        /* \"#utility.yul\":10735:10748   */\n      mul\n        /* \"#utility.yul\":10706:10757   */\n      tag_85\n      jump\t// in\n    tag_218:\n        /* \"#utility.yul\":10702:10758   */\n      not\n        /* \"#utility.yul\":10787:10791   */\n      dup1\n        /* \"#utility.yul\":10781:10785   */\n      dup4\n        /* \"#utility.yul\":10777:10792   */\n      and\n        /* \"#utility.yul\":10767:10792   */\n      swap2\n      pop\n        /* \"#utility.yul\":10680:10798   */\n      pop\n        /* \"#utility.yul\":10629:10798   */\n      swap3\n      swap2\n      pop\n      pop\n      jump\t// out\n        /* \"#utility.yul\":10803:11098   */\n    tag_87:\n        /* \"#utility.yul\":10879:10883   */\n      0x00\n        /* \"#utility.yul\":11025:11054   */\n      tag_220\n        /* \"#utility.yul\":11050:11053   */\n      dup4\n        /* \"#utility.yul\":11044:11048   */\n      dup4\n        /* \"#utility.yul\":11025:11054   */\n      tag_86\n      jump\t// in\n    tag_220:\n        /* \"#utility.yul\":11017:11054   */\n      swap2\n      pop\n        /* \"#utility.yul\":11087:11090   */\n      dup3\n        /* \"#utility.yul\":11084:11085   */\n      0x02\n        /* \"#utility.yul\":11080:11091   */\n      mul\n        /* \"#utility.yul\":11074:11078   */\n      dup3\n        /* \"#utility.yul\":11071:11092   */\n      or\n        /* \"#utility.yul\":11063:11092   */\n      swap1\n      pop\n        /* \"#utility.yul\":10803:11098   */\n      swap3\n      swap2\n      pop\n      pop\n      jump\t// out\n        /* \"#utility.yul\":11103:12495   */\n    tag_33:\n        /* \"#utility.yul\":11219:11256   */\n      tag_222\n        /* \"#utility.yul\":11252:11255   */\n      dup3\n        /* \"#utility.yul\":11219:11256   */\n      tag_71\n      jump\t// in\n    tag_222:\n        /* \"#utility.yul\":11321:11339   */\n      0xffffffffffffffff\n        /* \"#utility.yul\":11313:11319   */\n      dup2\n        /* \"#utility.yul\":11310:11340   */\n      gt\n        /* \"#utility.yul\":11307:11363   */\n      iszero\n      tag_223\n      jumpi\n        /* \"#utility.yul\":11343:11361   */\n      tag_224\n      tag_56\n      jump\t// in\n    tag_224:\n        /* \"#utility.yul\":11307:11363   */\n    tag_223:\n        /* \"#utility.yul\":11387:11425   */\n      tag_225\n        /* \"#utility.yul\":11419:11423   */\n      dup3\n        /* \"#utility.yul\":11413:11424   */\n      sload\n        /* \"#utility.yul\":11387:11425   */\n      tag_39\n      jump\t// in\n    tag_225:\n        /* \"#utility.yul\":11472:11538   */\n      tag_226\n        /* \"#utility.yul\":11531:11537   */\n      dup3\n        /* \"#utility.yul\":11523:11529   */\n      dup3\n        /* \"#utility.yul\":11517:11521   */\n      dup6\n        /* \"#utility.yul\":11472:11538   */\n      tag_84\n      jump\t// in\n    tag_226:\n        /* \"#utility.yul\":11565:11566   */\n      0x00\n        /* \"#utility.yul\":11589:11593   */\n      0x20\n        /* \"#utility.yul\":11576:11593   */\n      swap1\n      pop\n        /* \"#utility.yul\":11621:11623   */\n      0x1f\n        /* \"#utility.yul\":11613:11619   */\n      dup4\n        /* \"#utility.yul\":11610:11624   */\n      gt\n        /* \"#utility.yul\":11638:11639   */\n      0x01\n        /* \"#utility.yul\":11633:12250   */\n      dup2\n      eq\n      tag_228\n      jumpi\n        /* \"#utility.yul\":12294:12295   */\n      0x00\n        /* \"#utility.yul\":12311:12317   */\n      dup5\n        /* \"#utility.yul\":12308:12385   */\n      iszero\n      tag_229\n      jumpi\n        /* \"#utility.yul\":12360:12369   */\n      dup3\n        /* \"#utility.yul\":12355:12358   */\n      dup8\n        /* \"#utility.yul\":12351:12370   */\n      add\n        /* \"#utility.yul\":12345:12371   */\n      mload\n        /* \"#utility.yul\":12336:12371   */\n      swap1\n      pop\n        /* \"#utility.yul\":12308:12385   */\n    tag_229:\n        /* \"#utility.yul\":12411:12478   */\n      tag_230\n        /* \"#utility.yul\":12471:12477   */\n      dup6\n        /* \"#utility.yul\":12464:12469   */\n      dup3\n        /* \"#utility.yul\":12411:12478   */\n      tag_87\n      jump\t// in\n    tag_230:\n        /* \"#utility.yul\":12405:12409   */\n      dup7\n        /* \"#utility.yul\":12398:12479   */\n      sstore\n        /* \"#utility.yul\":12267:12489   */\n      pop\n        /* \"#utility.yul\":11603:12489   */\n      jump(tag_227)\n        /* \"#utility.yul\":11633:12250   */\n    tag_228:\n        /* \"#utility.yul\":11685:11689   */\n      0x1f\n        /* \"#utility.yul\":11681:11690   */\n      not\n        /* \"#utility.yul\":11673:11679   */\n      dup5\n        /* \"#utility.yul\":11669:11691   */\n      and\n        /* \"#utility.yul\":11719:11755   */\n      tag_231\n        /* \"#utility.yul\":11750:11754   */\n      dup7\n        /* \"#utility.yul\":11719:11755   */\n      tag_73\n      jump\t// in\n    tag_231:\n        /* \"#utility.yul\":11777:11778   */\n      0x00\n        /* \"#utility.yul\":11791:11999   */\n    tag_232:\n        /* \"#utility.yul\":11805:11812   */\n      dup3\n        /* \"#utility.yul\":11802:11803   */\n      dup2\n        /* \"#utility.yul\":11799:11813   */\n      lt\n        /* \"#utility.yul\":11791:11999   */\n      iszero\n      tag_234\n      jumpi\n        /* \"#utility.yul\":11884:11893   */\n      dup5\n        /* \"#utility.yul\":11879:11882   */\n      dup10\n        /* \"#utility.yul\":11875:11894   */\n      add\n        /* \"#utility.yul\":11869:11895   */\n      mload\n        /* \"#utility.yul\":11861:11867   */\n      dup3\n        /* \"#utility.yul\":11854:11896   */\n      sstore\n        /* \"#utility.yul\":11935:11936   */\n      0x01\n        /* \"#utility.yul\":11927:11933   */\n      dup3\n        /* \"#utility.yul\":11923:11937   */\n      add\n        /* \"#utility.yul\":11913:11937   */\n      swap2\n      pop\n        /* \"#utility.yul\":11982:11984   */\n      0x20\n        /* \"#utility.yul\":11971:11980   */\n      dup6\n        /* \"#utility.yul\":11967:11985   */\n      add\n        /* \"#utility.yul\":11954:11985   */\n      swap5\n      pop\n        /* \"#utility.yul\":11828:11832   */\n      0x20\n        /* \"#utility.yul\":11825:11826   */\n      dup2\n        /* \"#utility.yul\":11821:11833   */\n      add\n        /* \"#utility.yul\":11816:11833   */\n      swap1\n      pop\n        /* \"#utility.yul\":11791:11999   */\n      jump(tag_232)\n    tag_234:\n        /* \"#utility.yul\":12027:12033   */\n      dup7\n        /* \"#utility.yul\":12018:12025   */\n      dup4\n        /* \"#utility.yul\":12015:12034   */\n      lt\n        /* \"#utility.yul\":12012:12191   */\n      iszero\n      tag_235\n      jumpi\n        /* \"#utility.yul\":12085:12094   */\n      dup5\n        /* \"#utility.yul\":12080:12083   */\n      dup10\n        /* \"#utility.yul\":12076:12095   */\n      add\n        /* \"#utility.yul\":12070:12096   */\n      mload\n        /* \"#utility.yul\":12128:12176   */\n      tag_236\n        /* \"#utility.yul\":12170:12174   */\n      0x1f\n        /* \"#utility.yul\":12162:12168   */\n      dup10\n        /* \"#utility.yul\":12158:12175   */\n      and\n        /* \"#utility.yul\":12147:12156   */\n      dup3\n        /* \"#utility.yul\":12128:12176   */\n      tag_86\n      jump\t// in\n    tag_236:\n        /* \"#utility.yul\":12120:12126   */\n      dup4\n        /* \"#utility.yul\":12113:12177   */\n      sstore\n        /* \"#utility.yul\":12035:12191   */\n      pop\n        /* \"#utility.yul\":12012:12191   */\n    tag_235:\n        /* \"#utility.yul\":12237:12238   */\n      0x01\n        /* \"#utility.yul\":12233:12234   */\n      0x02\n        /* \"#utility.yul\":12225:12231   */\n      dup9\n        /* \"#utility.yul\":12221:12235   */\n      mul\n        /* \"#utility.yul\":12217:12239   */\n      add\n        /* \"#utility.yul\":12211:12215   */\n      dup9\n        /* \"#utility.yul\":12204:12240   */\n      sstore\n        /* \"#utility.yul\":11640:12250   */\n      pop\n      pop\n      pop\n        /* \"#utility.yul\":11603:12489   */\n    tag_227:\n      pop\n        /* \"#utility.yul\":11194:12495   */\n      pop\n      pop\n      pop\n        /* \"#utility.yul\":11103:12495   */\n      pop\n      pop\n      jump\t// out\n        /* \"#utility.yul\":12501:13891   */\n    tag_36:\n        /* \"#utility.yul\":12616:12652   */\n      tag_238\n        /* \"#utility.yul\":12648:12651   */\n      dup3\n        /* \"#utility.yul\":12616:12652   */\n      tag_63\n      jump\t// in\n    tag_238:\n        /* \"#utility.yul\":12717:12735   */\n      0xffffffffffffffff\n        /* \"#utility.yul\":12709:12715   */\n      dup2\n        /* \"#utility.yul\":12706:12736   */\n      gt\n        /* \"#utility.yul\":12703:12759   */\n      iszero\n      tag_239\n      jumpi\n        /* \"#utility.yul\":12739:12757   */\n      tag_240\n      tag_56\n      jump\t// in\n    tag_240:\n        /* \"#utility.yul\":12703:12759   */\n    tag_239:\n        /* \"#utility.yul\":12783:12821   */\n      tag_241\n        /* \"#utility.yul\":12815:12819   */\n      dup3\n        /* \"#utility.yul\":12809:12820   */\n      sload\n        /* \"#utility.yul\":12783:12821   */\n      tag_39\n      jump\t// in\n    tag_241:\n        /* \"#utility.yul\":12868:12934   */\n      tag_242\n        /* \"#utility.yul\":12927:12933   */\n      dup3\n        /* \"#utility.yul\":12919:12925   */\n      dup3\n        /* \"#utility.yul\":12913:12917   */\n      dup6\n        /* \"#utility.yul\":12868:12934   */\n      tag_84\n      jump\t// in\n    tag_242:\n        /* \"#utility.yul\":12961:12962   */\n      0x00\n        /* \"#utility.yul\":12985:12989   */\n      0x20\n        /* \"#utility.yul\":12972:12989   */\n      swap1\n      pop\n        /* \"#utility.yul\":13017:13019   */\n      0x1f\n        /* \"#utility.yul\":13009:13015   */\n      dup4\n        /* \"#utility.yul\":13006:13020   */\n      gt\n        /* \"#utility.yul\":13034:13035   */\n      0x01\n        /* \"#utility.yul\":13029:13646   */\n      dup2\n      eq\n      tag_244\n      jumpi\n        /* \"#utility.yul\":13690:13691   */\n      0x00\n        /* \"#utility.yul\":13707:13713   */\n      dup5\n        /* \"#utility.yul\":13704:13781   */\n      iszero\n      tag_245\n      jumpi\n        /* \"#utility.yul\":13756:13765   */\n      dup3\n        /* \"#utility.yul\":13751:13754   */\n      dup8\n        /* \"#utility.yul\":13747:13766   */\n      add\n        /* \"#utility.yul\":13741:13767   */\n      mload\n        /* \"#utility.yul\":13732:13767   */\n      swap1\n      pop\n        /* \"#utility.yul\":13704:13781   */\n    tag_245:\n        /* \"#utility.yul\":13807:13874   */\n      tag_246\n        /* \"#utility.yul\":13867:13873   */\n      dup6\n        /* \"#utility.yul\":13860:13865   */\n      dup3\n        /* \"#utility.yul\":13807:13874   */\n      tag_87\n      jump\t// in\n    tag_246:\n        /* \"#utility.yul\":13801:13805   */\n      dup7\n        /* \"#utility.yul\":13794:13875   */\n      sstore\n        /* \"#utility.yul\":13663:13885   */\n      pop\n        /* \"#utility.yul\":12999:13885   */\n      jump(tag_243)\n        /* \"#utility.yul\":13029:13646   */\n    tag_244:\n        /* \"#utility.yul\":13081:13085   */\n      0x1f\n        /* \"#utility.yul\":13077:13086   */\n      not\n        /* \"#utility.yul\":13069:13075   */\n      dup5\n        /* \"#utility.yul\":13065:13087   */\n      and\n        /* \"#utility.yul\":13115:13151   */\n      tag_247\n        /* \"#utility.yul\":13146:13150   */\n      dup7\n        /* \"#utility.yul\":13115:13151   */\n      tag_73\n      jump\t// in\n    tag_247:\n        /* \"#utility.yul\":13173:13174   */\n      0x00\n        /* \"#utility.yul\":13187:13395   */\n    tag_248:\n        /* \"#utility.yul\":13201:13208   */\n      dup3\n        /* \"#utility.yul\":13198:13199   */\n      dup2\n        /* \"#utility.yul\":13195:13209   */\n      lt\n        /* \"#utility.yul\":13187:13395   */\n      iszero\n      tag_250\n      jumpi\n        /* \"#utility.yul\":13280:13289   */\n      dup5\n        /* \"#utility.yul\":13275:13278   */\n      dup10\n        /* \"#utility.yul\":13271:13290   */\n      add\n        /* \"#utility.yul\":13265:13291   */\n      mload\n        /* \"#utility.yul\":13257:13263   */\n      dup3\n        /* \"#utility.yul\":13250:13292   */\n      sstore\n        /* \"#utility.yul\":13331:13332   */\n      0x01\n        /* \"#utility.yul\":13323:13329   */\n      dup3\n        /* \"#utility.yul\":13319:13333   */\n      add\n        /* \"#utility.yul\":13309:13333   */\n      swap2\n      pop\n        /* \"#utility.yul\":13378:13380   */\n      0x20\n        /* \"#utility.yul\":13367:13376   */\n      dup6\n        /* \"#utility.yul\":13363:13381   */\n      add\n        /* \"#utility.yul\":13350:13381   */\n      swap5\n      pop\n        /* \"#utility.yul\":13224:13228   */\n      0x20\n        /* \"#utility.yul\":13221:13222   */\n      dup2\n        /* \"#utility.yul\":13217:13229   */\n      add\n        /* \"#utility.yul\":13212:13229   */\n      swap1\n      pop\n        /* \"#utility.yul\":13187:13395   */\n      jump(tag_248)\n    tag_250:\n        /* \"#utility.yul\":13423:13429   */\n      dup7\n        /* \"#utility.yul\":13414:13421   */\n      dup4\n        /* \"#utility.yul\":13411:13430   */\n      lt\n        /* \"#utility.yul\":13408:13587   */\n      iszero\n      tag_251\n      jumpi\n        /* \"#utility.yul\":13481:13490   */\n      dup5\n        /* \"#utility.yul\":13476:13479   */\n      dup10\n        /* \"#utility.yul\":13472:13491   */\n      add\n        /* \"#utility.yul\":13466:13492   */\n      mload\n        /* \"#utility.yul\":13524:13572   */\n      tag_252\n        /* \"#utility.yul\":13566:13570   */\n      0x1f\n        /* \"#utility.yul\":13558:13564   */\n      dup10\n        /* \"#utility.yul\":13554:13571   */\n      and\n        /* \"#utility.yul\":13543:13552   */\n      dup3\n        /* \"#utility.yul\":13524:13572   */\n      tag_86\n      jump\t// in\n    tag_252:\n        /* \"#utility.yul\":13516:13522   */\n      dup4\n        /* \"#utility.yul\":13509:13573   */\n      sstore\n        /* \"#utility.yul\":13431:13587   */\n      pop\n        /* \"#utility.yul\":13408:13587   */\n    tag_251:\n        /* \"#utility.yul\":13633:13634   */\n      0x01\n        /* \"#utility.yul\":13629:13630   */\n      0x02\n        /* \"#utility.yul\":13621:13627   */\n      dup9\n        /* \"#utility.yul\":13617:13631   */\n      mul\n        /* \"#utility.yul\":13613:13635   */\n      add\n        /* \"#utility.yul\":13607:13611   */\n      dup9\n        /* \"#utility.yul\":13600:13636   */\n      sstore\n        /* \"#utility.yul\":13036:13646   */\n      pop\n      pop\n      pop\n        /* \"#utility.yul\":12999:13885   */\n    tag_243:\n      pop\n        /* \"#utility.yul\":12591:13891   */\n      pop\n      pop\n      pop\n        /* \"#utility.yul\":12501:13891   */\n      pop\n      pop\n      jump\t// out\n\n    auxdata: 0xa264697066735822122036885e0e7966e68cf6da3a0e7729d412dfd9c9bf73d697006d8c0fe9c153b22f64736f6c63430008120033\n}\n",
				"bytecode": {
					"linkReferences": {},
					"object": "608060405234801561001057600080fd5b50610a1d806100206000396000f3fe608060405234801561001057600080fd5b50600436106100575760003560e01c80631003e2d21461005c578063498e68571461008c578063cea72ca514610096578063d46300fd146100b2578063e1421c92146100d0575b600080fd5b6100766004803603810190610071919061024a565b6100ec565b6040516100839190610286565b60405180910390f35b610094610101565b005b6100b060048036038101906100ab91906103e7565b610148565b005b6100ba61015b565b6040516100c791906104af565b60405180910390f35b6100ea60048036038101906100e59190610572565b6101ed565b005b600081826100fa91906105ea565b9050919050565b6040518060400160405280600281526020017f3136000000000000000000000000000000000000000000000000000000000000815250600090816101459190610843565b50565b80600090816101579190610915565b5050565b60606000805461016a90610666565b80601f016020809104026020016040519081016040528092919081815260200182805461019690610666565b80156101e35780601f106101b8576101008083540402835291602001916101e3565b820191906000526020600020905b8154815290600101906020018083116101c657829003601f168201915b5050505050905090565b80600090816101fc9190610915565b5050565b6000604051905090565b600080fd5b600080fd5b6000819050919050565b61022781610214565b811461023257600080fd5b50565b6000813590506102448161021e565b92915050565b6000602082840312156102605761025f61020a565b5b600061026e84828501610235565b91505092915050565b61028081610214565b82525050565b600060208201905061029b6000830184610277565b92915050565b600080fd5b600080fd5b6000601f19601f8301169050919050565b7f4e487b7100000000000000000000000000000000000000000000000000000000600052604160045260246000fd5b6102f4826102ab565b810181811067ffffffffffffffff82111715610313576103126102bc565b5b80604052505050565b6000610326610200565b905061033282826102eb565b919050565b600067ffffffffffffffff821115610352576103516102bc565b5b61035b826102ab565b9050602081019050919050565b82818337600083830152505050565b600061038a61038584610337565b61031c565b9050828152602081018484840111156103a6576103a56102a6565b5b6103b1848285610368565b509392505050565b600082601f8301126103ce576103cd6102a1565b5b81356103de848260208601610377565b91505092915050565b6000602082840312156103fd576103fc61020a565b5b600082013567ffffffffffffffff81111561041b5761041a61020f565b5b610427848285016103b9565b91505092915050565b600081519050919050565b600082825260208201905092915050565b60005b8381101561046a57808201518184015260208101905061044f565b60008484015250505050565b600061048182610430565b61048b818561043b565b935061049b81856020860161044c565b6104a4816102ab565b840191505092915050565b600060208201905081810360008301526104c98184610476565b905092915050565b600067ffffffffffffffff8211156104ec576104eb6102bc565b5b6104f5826102ab565b9050602081019050919050565b6000610515610510846104d1565b61031c565b905082815260208101848484011115610531576105306102a6565b5b61053c848285610368565b509392505050565b600082601f830112610559576105586102a1565b5b8135610569848260208601610502565b91505092915050565b6000602082840312156105885761058761020a565b5b600082013567ffffffffffffffff8111156105a6576105a561020f565b5b6105b284828501610544565b91505092915050565b7f4e487b7100000000000000000000000000000000000000000000000000000000600052601160045260246000fd5b60006105f582610214565b915061060083610214565b925082820261060e81610214565b91508282048414831517610625576106246105bb565b5b5092915050565b600081519050919050565b7f4e487b7100000000000000000000000000000000000000000000000000000000600052602260045260246000fd5b6000600282049050600182168061067e57607f821691505b60208210810361069157610690610637565b5b50919050565b60008190508160005260206000209050919050565b60006020601f8301049050919050565b600082821b905092915050565b6000600883026106f97fffffffffffffffffffffffffffffffffffffffffffffffffffffffffffffffff826106bc565b61070386836106bc565b95508019841693508086168417925050509392505050565b6000819050919050565b600061074061073b61073684610214565b61071b565b610214565b9050919050565b6000819050919050565b61075a83610725565b61076e61076682610747565b8484546106c9565b825550505050565b600090565b610783610776565b61078e818484610751565b505050565b5b818110156107b2576107a760008261077b565b600181019050610794565b5050565b601f8211156107f7576107c881610697565b6107d1846106ac565b810160208510156107e0578190505b6107f46107ec856106ac565b830182610793565b50505b505050565b600082821c905092915050565b600061081a600019846008026107fc565b1980831691505092915050565b60006108338383610809565b9150826002028217905092915050565b61084c8261062c565b67ffffffffffffffff811115610865576108646102bc565b5b61086f8254610666565b61087a8282856107b6565b600060209050601f8311600181146108ad576000841561089b578287015190505b6108a58582610827565b86555061090d565b601f1984166108bb86610697565b60005b828110156108e3578489015182556001820191506020850194506020810190506108be565b8683101561090057848901516108fc601f891682610809565b8355505b6001600288020188555050505b505050505050565b61091e82610430565b67ffffffffffffffff811115610937576109366102bc565b5b6109418254610666565b61094c8282856107b6565b600060209050601f83116001811461097f576000841561096d578287015190505b6109778582610827565b8655506109df565b601f19841661098d86610697565b60005b828110156109b557848901518255600182019150602085019450602081019050610990565b868310156109d257848901516109ce601f891682610809565b8355505b6001600288020188555050505b50505050505056fea264697066735822122036885e0e7966e68cf6da3a0e7729d412dfd9c9bf73d697006d8c0fe9c153b22f64736f6c63430008120033",
					"opcodes": "PUSH1 0x80 PUSH1 0x40 MSTORE CALLVALUE DUP1 ISZERO PUSH2 0x10 JUMPI PUSH1 0x0 DUP1 REVERT JUMPDEST POP PUSH2 0xA1D DUP1 PUSH2 0x20 PUSH1 0x0 CODECOPY PUSH1 0x0 RETURN INVALID PUSH1 0x80 PUSH1 0x40 MSTORE CALLVALUE DUP1 ISZERO PUSH2 0x10 JUMPI PUSH1 0x0 DUP1 REVERT JUMPDEST POP PUSH1 0x4 CALLDATASIZE LT PUSH2 0x57 JUMPI PUSH1 0x0 CALLDATALOAD PUSH1 0xE0 SHR DUP1 PUSH4 0x1003E2D2 EQ PUSH2 0x5C JUMPI DUP1 PUSH4 0x498E6857 EQ PUSH2 0x8C JUMPI DUP1 PUSH4 0xCEA72CA5 EQ PUSH2 0x96 JUMPI DUP1 PUSH4 0xD46300FD EQ PUSH2 0xB2 JUMPI DUP1 PUSH4 0xE1421C92 EQ PUSH2 0xD0 JUMPI JUMPDEST PUSH1 0x0 DUP1 REVERT JUMPDEST PUSH2 0x76 PUSH1 0x4 DUP1 CALLDATASIZE SUB DUP2 ADD SWAP1 PUSH2 0x71 SWAP2 SWAP1 PUSH2 0x24A JUMP JUMPDEST PUSH2 0xEC JUMP JUMPDEST PUSH1 0x40 MLOAD PUSH2 0x83 SWAP2 SWAP1 PUSH2 0x286 JUMP JUMPDEST PUSH1 0x40 MLOAD DUP1 SWAP2 SUB SWAP1 RETURN JUMPDEST PUSH2 0x94 PUSH2 0x101 JUMP JUMPDEST STOP JUMPDEST PUSH2 0xB0 PUSH1 0x4 DUP1 CALLDATASIZE SUB DUP2 ADD SWAP1 PUSH2 0xAB SWAP2 SWAP1 PUSH2 0x3E7 JUMP JUMPDEST PUSH2 0x148 JUMP JUMPDEST STOP JUMPDEST PUSH2 0xBA PUSH2 0x15B JUMP JUMPDEST PUSH1 0x40 MLOAD PUSH2 0xC7 SWAP2 SWAP1 PUSH2 0x4AF JUMP JUMPDEST PUSH1 0x40 MLOAD DUP1 SWAP2 SUB SWAP1 RETURN JUMPDEST PUSH2 0xEA PUSH1 0x4 DUP1 CALLDATASIZE SUB DUP2 ADD SWAP1 PUSH2 0xE5 SWAP2 SWAP1 PUSH2 0x572 JUMP JUMPDEST PUSH2 0x1ED JUMP JUMPDEST STOP JUMPDEST PUSH1 0x0 DUP2 DUP3 PUSH2 0xFA SWAP2 SWAP1 PUSH2 0x5EA JUMP JUMPDEST SWAP1 POP SWAP2 SWAP1 POP JUMP JUMPDEST PUSH1 0x40 MLOAD DUP1 PUSH1 0x40 ADD PUSH1 0x40 MSTORE DUP1 PUSH1 0x2 DUP2 MSTORE PUSH1 0x20 ADD PUSH32 0x3136000000000000000000000000000000000000000000000000000000000000 DUP2 MSTORE POP PUSH1 0x0 SWAP1 DUP2 PUSH2 0x145 SWAP2 SWAP1 PUSH2 0x843 JUMP JUMPDEST POP JUMP JUMPDEST DUP1 PUSH1 0x0 SWAP1 DUP2 PUSH2 0x157 SWAP2 SWAP1 PUSH2 0x915 JUMP JUMPDEST POP POP JUMP JUMPDEST PUSH1 0x60 PUSH1 0x0 DUP1 SLOAD PUSH2 0x16A SWAP1 PUSH2 0x666 JUMP JUMPDEST DUP1 PUSH1 0x1F ADD PUSH1 0x20 DUP1 SWAP2 DIV MUL PUSH1 0x20 ADD PUSH1 0x40 MLOAD SWAP1 DUP2 ADD PUSH1 0x40 MSTORE DUP1 SWAP3 SWAP2 SWAP1 DUP2 DUP2 MSTORE PUSH1 0x20 ADD DUP3 DUP1 SLOAD PUSH2 0x196 SWAP1 PUSH2 0x666 JUMP JUMPDEST DUP1 ISZERO PUSH2 0x1E3 JUMPI DUP1 PUSH1 0x1F LT PUSH2 0x1B8 JUMPI PUSH2 0x100 DUP1 DUP4 SLOAD DIV MUL DUP4 MSTORE SWAP2 PUSH1 0x20 ADD SWAP2 PUSH2 0x1E3 JUMP JUMPDEST DUP3 ADD SWAP2 SWAP1 PUSH1 0x0 MSTORE PUSH1 0x20 PUSH1 0x0 KECCAK256 SWAP1 JUMPDEST DUP2 SLOAD DUP2 MSTORE SWAP1 PUSH1 0x1 ADD SWAP1 PUSH1 0x20 ADD DUP1 DUP4 GT PUSH2 0x1C6 JUMPI DUP3 SWAP1 SUB PUSH1 0x1F AND DUP3 ADD SWAP2 JUMPDEST POP POP POP POP POP SWAP1 POP SWAP1 JUMP JUMPDEST DUP1 PUSH1 0x0 SWAP1 DUP2 PUSH2 0x1FC SWAP2 SWAP1 PUSH2 0x915 JUMP JUMPDEST POP POP JUMP JUMPDEST PUSH1 0x0 PUSH1 0x40 MLOAD SWAP1 POP SWAP1 JUMP JUMPDEST PUSH1 0x0 DUP1 REVERT JUMPDEST PUSH1 0x0 DUP1 REVERT JUMPDEST PUSH1 0x0 DUP2 SWAP1 POP SWAP2 SWAP1 POP JUMP JUMPDEST PUSH2 0x227 DUP2 PUSH2 0x214 JUMP JUMPDEST DUP2 EQ PUSH2 0x232 JUMPI PUSH1 0x0 DUP1 REVERT JUMPDEST POP JUMP JUMPDEST PUSH1 0x0 DUP2 CALLDATALOAD SWAP1 POP PUSH2 0x244 DUP2 PUSH2 0x21E JUMP JUMPDEST SWAP3 SWAP2 POP POP JUMP JUMPDEST PUSH1 0x0 PUSH1 0x20 DUP3 DUP5 SUB SLT ISZERO PUSH2 0x260 JUMPI PUSH2 0x25F PUSH2 0x20A JUMP JUMPDEST JUMPDEST PUSH1 0x0 PUSH2 0x26E DUP5 DUP3 DUP6 ADD PUSH2 0x235 JUMP JUMPDEST SWAP2 POP POP SWAP3 SWAP2 POP POP JUMP JUMPDEST PUSH2 0x280 DUP2 PUSH2 0x214 JUMP JUMPDEST DUP3 MSTORE POP POP JUMP JUMPDEST PUSH1 0x0 PUSH1 0x20 DUP3 ADD SWAP1 POP PUSH2 0x29B PUSH1 0x0 DUP4 ADD DUP5 PUSH2 0x277 JUMP JUMPDEST SWAP3 SWAP2 POP POP JUMP JUMPDEST PUSH1 0x0 DUP1 REVERT JUMPDEST PUSH1 0x0 DUP1 REVERT JUMPDEST PUSH1 0x0 PUSH1 0x1F NOT PUSH1 0x1F DUP4 ADD AND SWAP1 POP SWAP2 SWAP1 POP JUMP JUMPDEST PUSH32 0x4E487B7100000000000000000000000000000000000000000000000000000000 PUSH1 0x0 MSTORE PUSH1 0x41 PUSH1 0x4 MSTORE PUSH1 0x24 PUSH1 0x0 REVERT JUMPDEST PUSH2 0x2F4 DUP3 PUSH2 0x2AB JUMP JUMPDEST DUP2 ADD DUP2 DUP2 LT PUSH8 0xFFFFFFFFFFFFFFFF DUP3 GT OR ISZERO PUSH2 0x313 JUMPI PUSH2 0x312 PUSH2 0x2BC JUMP JUMPDEST JUMPDEST DUP1 PUSH1 0x40 MSTORE POP POP POP JUMP JUMPDEST PUSH1 0x0 PUSH2 0x326 PUSH2 0x200 JUMP JUMPDEST SWAP1 POP PUSH2 0x332 DUP3 DUP3 PUSH2 0x2EB JUMP JUMPDEST SWAP2 SWAP1 POP JUMP JUMPDEST PUSH1 0x0 PUSH8 0xFFFFFFFFFFFFFFFF DUP3 GT ISZERO PUSH2 0x352 JUMPI PUSH2 0x351 PUSH2 0x2BC JUMP JUMPDEST JUMPDEST PUSH2 0x35B DUP3 PUSH2 0x2AB JUMP JUMPDEST SWAP1 POP PUSH1 0x20 DUP2 ADD SWAP1 POP SWAP2 SWAP1 POP JUMP JUMPDEST DUP3 DUP2 DUP4 CALLDATACOPY PUSH1 0x0 DUP4 DUP4 ADD MSTORE POP POP POP JUMP JUMPDEST PUSH1 0x0 PUSH2 0x38A PUSH2 0x385 DUP5 PUSH2 0x337 JUMP JUMPDEST PUSH2 0x31C JUMP JUMPDEST SWAP1 POP DUP3 DUP2 MSTORE PUSH1 0x20 DUP2 ADD DUP5 DUP5 DUP5 ADD GT ISZERO PUSH2 0x3A6 JUMPI PUSH2 0x3A5 PUSH2 0x2A6 JUMP JUMPDEST JUMPDEST PUSH2 0x3B1 DUP5 DUP3 DUP6 PUSH2 0x368 JUMP JUMPDEST POP SWAP4 SWAP3 POP POP POP JUMP JUMPDEST PUSH1 0x0 DUP3 PUSH1 0x1F DUP4 ADD SLT PUSH2 0x3CE JUMPI PUSH2 0x3CD PUSH2 0x2A1 JUMP JUMPDEST JUMPDEST DUP2 CALLDATALOAD PUSH2 0x3DE DUP5 DUP3 PUSH1 0x20 DUP7 ADD PUSH2 0x377 JUMP JUMPDEST SWAP2 POP POP SWAP3 SWAP2 POP POP JUMP JUMPDEST PUSH1 0x0 PUSH1 0x20 DUP3 DUP5 SUB SLT ISZERO PUSH2 0x3FD JUMPI PUSH2 0x3FC PUSH2 0x20A JUMP JUMPDEST JUMPDEST PUSH1 0x0 DUP3 ADD CALLDATALOAD PUSH8 0xFFFFFFFFFFFFFFFF DUP2 GT ISZERO PUSH2 0x41B JUMPI PUSH2 0x41A PUSH2 0x20F JUMP JUMPDEST JUMPDEST PUSH2 0x427 DUP5 DUP3 DUP6 ADD PUSH2 0x3B9 JUMP JUMPDEST SWAP2 POP POP SWAP3 SWAP2 POP POP JUMP JUMPDEST PUSH1 0x0 DUP2 MLOAD SWAP1 POP SWAP2 SWAP1 POP JUMP JUMPDEST PUSH1 0x0 DUP3 DUP3 MSTORE PUSH1 0x20 DUP3 ADD SWAP1 POP SWAP3 SWAP2 POP POP JUMP JUMPDEST PUSH1 0x0 JUMPDEST DUP4 DUP2 LT ISZERO PUSH2 0x46A JUMPI DUP1 DUP3 ADD MLOAD DUP2 DUP5 ADD MSTORE PUSH1 0x20 DUP2 ADD SWAP1 POP PUSH2 0x44F JUMP JUMPDEST PUSH1 0x0 DUP5 DUP5 ADD MSTORE POP POP POP POP JUMP JUMPDEST PUSH1 0x0 PUSH2 0x481 DUP3 PUSH2 0x430 JUMP JUMPDEST PUSH2 0x48B DUP2 DUP6 PUSH2 0x43B JUMP JUMPDEST SWAP4 POP PUSH2 0x49B DUP2 DUP6 PUSH1 0x20 DUP7 ADD PUSH2 0x44C JUMP JUMPDEST PUSH2 0x4A4 DUP2 PUSH2 0x2AB JUMP JUMPDEST DUP5 ADD SWAP2 POP POP SWAP3 SWAP2 POP POP JUMP JUMPDEST PUSH1 0x0 PUSH1 0x20 DUP3 ADD SWAP1 POP DUP2 DUP2 SUB PUSH1 0x0 DUP4 ADD MSTORE PUSH2 0x4C9 DUP2 DUP5 PUSH2 0x476 JUMP JUMPDEST SWAP1 POP SWAP3 SWAP2 POP POP JUMP JUMPDEST PUSH1 0x0 PUSH8 0xFFFFFFFFFFFFFFFF DUP3 GT ISZERO PUSH2 0x4EC JUMPI PUSH2 0x4EB PUSH2 0x2BC JUMP JUMPDEST JUMPDEST PUSH2 0x4F5 DUP3 PUSH2 0x2AB JUMP JUMPDEST SWAP1 POP PUSH1 0x20 DUP2 ADD SWAP1 POP SWAP2 SWAP1 POP JUMP JUMPDEST PUSH1 0x0 PUSH2 0x515 PUSH2 0x510 DUP5 PUSH2 0x4D1 JUMP JUMPDEST PUSH2 0x31C JUMP JUMPDEST SWAP1 POP DUP3 DUP2 MSTORE PUSH1 0x20 DUP2 ADD DUP5 DUP5 DUP5 ADD GT ISZERO PUSH2 0x531 JUMPI PUSH2 0x530 PUSH2 0x2A6 JUMP JUMPDEST JUMPDEST PUSH2 0x53C DUP5 DUP3 DUP6 PUSH2 0x368 JUMP JUMPDEST POP SWAP4 SWAP3 POP POP POP JUMP JUMPDEST PUSH1 0x0 DUP3 PUSH1 0x1F DUP4 ADD SLT PUSH2 0x559 JUMPI PUSH2 0x558 PUSH2 0x2A1 JUMP JUMPDEST JUMPDEST DUP2 CALLDATALOAD PUSH2 0x569 DUP5 DUP3 PUSH1 0x20 DUP7 ADD PUSH2 0x502 JUMP JUMPDEST SWAP2 POP POP SWAP3 SWAP2 POP POP JUMP JUMPDEST PUSH1 0x0 PUSH1 0x20 DUP3 DUP5 SUB SLT ISZERO PUSH2 0x588 JUMPI PUSH2 0x587 PUSH2 0x20A JUMP JUMPDEST JUMPDEST PUSH1 0x0 DUP3 ADD CALLDATALOAD PUSH8 0xFFFFFFFFFFFFFFFF DUP2 GT ISZERO PUSH2 0x5A6 JUMPI PUSH2 0x5A5 PUSH2 0x20F JUMP JUMPDEST JUMPDEST PUSH2 0x5B2 DUP5 DUP3 DUP6 ADD PUSH2 0x544 JUMP JUMPDEST SWAP2 POP POP SWAP3 SWAP2 POP POP JUMP JUMPDEST PUSH32 0x4E487B7100000000000000000000000000000000000000000000000000000000 PUSH1 0x0 MSTORE PUSH1 0x11 PUSH1 0x4 MSTORE PUSH1 0x24 PUSH1 0x0 REVERT JUMPDEST PUSH1 0x0 PUSH2 0x5F5 DUP3 PUSH2 0x214 JUMP JUMPDEST SWAP2 POP PUSH2 0x600 DUP4 PUSH2 0x214 JUMP JUMPDEST SWAP3 POP DUP3 DUP3 MUL PUSH2 0x60E DUP2 PUSH2 0x214 JUMP JUMPDEST SWAP2 POP DUP3 DUP3 DIV DUP5 EQ DUP4 ISZERO OR PUSH2 0x625 JUMPI PUSH2 0x624 PUSH2 0x5BB JUMP JUMPDEST JUMPDEST POP SWAP3 SWAP2 POP POP JUMP JUMPDEST PUSH1 0x0 DUP2 MLOAD SWAP1 POP SWAP2 SWAP1 POP JUMP JUMPDEST PUSH32 0x4E487B7100000000000000000000000000000000000000000000000000000000 PUSH1 0x0 MSTORE PUSH1 0x22 PUSH1 0x4 MSTORE PUSH1 0x24 PUSH1 0x0 REVERT JUMPDEST PUSH1 0x0 PUSH1 0x2 DUP3 DIV SWAP1 POP PUSH1 0x1 DUP3 AND DUP1 PUSH2 0x67E JUMPI PUSH1 0x7F DUP3 AND SWAP2 POP JUMPDEST PUSH1 0x20 DUP3 LT DUP2 SUB PUSH2 0x691 JUMPI PUSH2 0x690 PUSH2 0x637 JUMP JUMPDEST JUMPDEST POP SWAP2 SWAP1 POP JUMP JUMPDEST PUSH1 0x0 DUP2 SWAP1 POP DUP2 PUSH1 0x0 MSTORE PUSH1 0x20 PUSH1 0x0 KECCAK256 SWAP1 POP SWAP2 SWAP1 POP JUMP JUMPDEST PUSH1 0x0 PUSH1 0x20 PUSH1 0x1F DUP4 ADD DIV SWAP1 POP SWAP2 SWAP1 POP JUMP JUMPDEST PUSH1 0x0 DUP3 DUP3 SHL SWAP1 POP SWAP3 SWAP2 POP POP JUMP JUMPDEST PUSH1 0x0 PUSH1 0x8 DUP4 MUL PUSH2 0x6F9 PUSH32 0xFFFFFFFFFFFFFFFFFFFFFFFFFFFFFFFFFFFFFFFFFFFFFFFFFFFFFFFFFFFFFFFF DUP3 PUSH2 0x6BC JUMP JUMPDEST PUSH2 0x703 DUP7 DUP4 PUSH2 0x6BC JUMP JUMPDEST SWAP6 POP DUP1 NOT DUP5 AND SWAP4 POP DUP1 DUP7 AND DUP5 OR SWAP3 POP POP POP SWAP4 SWAP3 POP POP POP JUMP JUMPDEST PUSH1 0x0 DUP2 SWAP1 POP SWAP2 SWAP1 POP JUMP JUMPDEST PUSH1 0x0 PUSH2 0x740 PUSH2 0x73B PUSH2 0x736 DUP5 PUSH2 0x214 JUMP JUMPDEST PUSH2 0x71B JUMP JUMPDEST PUSH2 0x214 JUMP JUMPDEST SWAP1 POP SWAP2 SWAP1 POP JUMP JUMPDEST PUSH1 0x0 DUP2 SWAP1 POP SWAP2 SWAP1 POP JUMP JUMPDEST PUSH2 0x75A DUP4 PUSH2 0x725 JUMP JUMPDEST PUSH2 0x76E PUSH2 0x766 DUP3 PUSH2 0x747 JUMP JUMPDEST DUP5 DUP5 SLOAD PUSH2 0x6C9 JUMP JUMPDEST DUP3 SSTORE POP POP POP POP JUMP JUMPDEST PUSH1 0x0 SWAP1 JUMP JUMPDEST PUSH2 0x783 PUSH2 0x776 JUMP JUMPDEST PUSH2 0x78E DUP2 DUP5 DUP5 PUSH2 0x751 JUMP JUMPDEST POP POP POP JUMP JUMPDEST JUMPDEST DUP2 DUP2 LT ISZERO PUSH2 0x7B2 JUMPI PUSH2 0x7A7 PUSH1 0x0 DUP3 PUSH2 0x77B JUMP JUMPDEST PUSH1 0x1 DUP2 ADD SWAP1 POP PUSH2 0x794 JUMP JUMPDEST POP POP JUMP JUMPDEST PUSH1 0x1F DUP3 GT ISZERO PUSH2 0x7F7 JUMPI PUSH2 0x7C8 DUP2 PUSH2 0x697 JUMP JUMPDEST PUSH2 0x7D1 DUP5 PUSH2 0x6AC JUMP JUMPDEST DUP2 ADD PUSH1 0x20 DUP6 LT ISZERO PUSH2 0x7E0 JUMPI DUP2 SWAP1 POP JUMPDEST PUSH2 0x7F4 PUSH2 0x7EC DUP6 PUSH2 0x6AC JUMP JUMPDEST DUP4 ADD DUP3 PUSH2 0x793 JUMP JUMPDEST POP POP JUMPDEST POP POP POP JUMP JUMPDEST PUSH1 0x0 DUP3 DUP3 SHR SWAP1 POP SWAP3 SWAP2 POP POP JUMP JUMPDEST PUSH1 0x0 PUSH2 0x81A PUSH1 0x0 NOT DUP5 PUSH1 0x8 MUL PUSH2 0x7FC JUMP JUMPDEST NOT DUP1 DUP4 AND SWAP2 POP POP SWAP3 SWAP2 POP POP JUMP JUMPDEST PUSH1 0x0 PUSH2 0x833 DUP4 DUP4 PUSH2 0x809 JUMP JUMPDEST SWAP2 POP DUP3 PUSH1 0x2 MUL DUP3 OR SWAP1 POP SWAP3 SWAP2 POP POP JUMP JUMPDEST PUSH2 0x84C DUP3 PUSH2 0x62C JUMP JUMPDEST PUSH8 0xFFFFFFFFFFFFFFFF DUP2 GT ISZERO PUSH2 0x865 JUMPI PUSH2 0x864 PUSH2 0x2BC JUMP JUMPDEST JUMPDEST PUSH2 0x86F DUP3 SLOAD PUSH2 0x666 JUMP JUMPDEST PUSH2 0x87A DUP3 DUP3 DUP6 PUSH2 0x7B6 JUMP JUMPDEST PUSH1 0x0 PUSH1 0x20 SWAP1 POP PUSH1 0x1F DUP4 GT PUSH1 0x1 DUP2 EQ PUSH2 0x8AD JUMPI PUSH1 0x0 DUP5 ISZERO PUSH2 0x89B JUMPI DUP3 DUP8 ADD MLOAD SWAP1 POP JUMPDEST PUSH2 0x8A5 DUP6 DUP3 PUSH2 0x827 JUMP JUMPDEST DUP7 SSTORE POP PUSH2 0x90D JUMP JUMPDEST PUSH1 0x1F NOT DUP5 AND PUSH2 0x8BB DUP7 PUSH2 0x697 JUMP JUMPDEST PUSH1 0x0 JUMPDEST DUP3 DUP2 LT ISZERO PUSH2 0x8E3 JUMPI DUP5 DUP10 ADD MLOAD DUP3 SSTORE PUSH1 0x1 DUP3 ADD SWAP2 POP PUSH1 0x20 DUP6 ADD SWAP5 POP PUSH1 0x20 DUP2 ADD SWAP1 POP PUSH2 0x8BE JUMP JUMPDEST DUP7 DUP4 LT ISZERO PUSH2 0x900 JUMPI DUP5 DUP10 ADD MLOAD PUSH2 0x8FC PUSH1 0x1F DUP10 AND DUP3 PUSH2 0x809 JUMP JUMPDEST DUP4 SSTORE POP JUMPDEST PUSH1 0x1 PUSH1 0x2 DUP9 MUL ADD DUP9 SSTORE POP POP POP JUMPDEST POP POP POP POP POP POP JUMP JUMPDEST PUSH2 0x91E DUP3 PUSH2 0x430 JUMP JUMPDEST PUSH8 0xFFFFFFFFFFFFFFFF DUP2 GT ISZERO PUSH2 0x937 JUMPI PUSH2 0x936 PUSH2 0x2BC JUMP JUMPDEST JUMPDEST PUSH2 0x941 DUP3 SLOAD PUSH2 0x666 JUMP JUMPDEST PUSH2 0x94C DUP3 DUP3 DUP6 PUSH2 0x7B6 JUMP JUMPDEST PUSH1 0x0 PUSH1 0x20 SWAP1 POP PUSH1 0x1F DUP4 GT PUSH1 0x1 DUP2 EQ PUSH2 0x97F JUMPI PUSH1 0x0 DUP5 ISZERO PUSH2 0x96D JUMPI DUP3 DUP8 ADD MLOAD SWAP1 POP JUMPDEST PUSH2 0x977 DUP6 DUP3 PUSH2 0x827 JUMP JUMPDEST DUP7 SSTORE POP PUSH2 0x9DF JUMP JUMPDEST PUSH1 0x1F NOT DUP5 AND PUSH2 0x98D DUP7 PUSH2 0x697 JUMP JUMPDEST PUSH1 0x0 JUMPDEST DUP3 DUP2 LT ISZERO PUSH2 0x9B5 JUMPI DUP5 DUP10 ADD MLOAD DUP3 SSTORE PUSH1 0x1 DUP3 ADD SWAP2 POP PUSH1 0x20 DUP6 ADD SWAP5 POP PUSH1 0x20 DUP2 ADD SWAP1 POP PUSH2 0x990 JUMP JUMPDEST DUP7 DUP4 LT ISZERO PUSH2 0x9D2 JUMPI DUP5 DUP10 ADD MLOAD PUSH2 0x9CE PUSH1 0x1F DUP10 AND DUP3 PUSH2 0x809 JUMP JUMPDEST DUP4 SSTORE POP JUMPDEST PUSH1 0x1 PUSH1 0x2 DUP9 MUL ADD DUP9 SSTORE POP POP POP JUMPDEST POP POP POP POP POP POP JUMP INVALID LOG2 PUSH5 0x6970667358 0x22 SLT KECCAK256 CALLDATASIZE DUP9 0x5E 0xE PUSH26 0x66E68CF6DA3A0E7729D412DFD9C9BF73D697006D8C0FE9C153B2 0x2F PUSH5 0x736F6C6343 STOP ADDMOD SLT STOP CALLER "
				},
				"gasEstimates": {
					"creation": {
						"codeDepositCost": "517800",
						"executionCost": "549",
						"totalCost": "518349"
					},
					"external": {
						"add(uint256)": "infinite",
						"getA()": "infinite",
						"setA(bytes)": "infinite",
						"setA2()": "infinite",
						"setA3(string)": "infinite"
					}
				},
				"methodIdentifiers": {
					"add(uint256)": "1003e2d2",
					"getA()": "d46300fd",
					"setA(bytes)": "e1421c92",
					"setA2()": "498e6857",
					"setA3(string)": "cea72ca5"
				}
			},
			"storageLayout": {
				"storage": [
					{
						"astId": 3,
						"contract": "contracts/230503_2.sol:BYTES",
						"label": "a",
						"offset": 0,
						"slot": "0",
						"type": "t_bytes_storage"
					}
				],
				"types": {
					"t_bytes_storage": {
						"encoding": "bytes",
						"label": "bytes",
						"numberOfBytes": "32"
					}
				}
			},
			"userdoc": {
				"kind": "user",
				"methods": {},
				"version": 1
			}
		}
	}
}